:020000041000EA
:1000000000B5324B212058609868022188439860DF
:10001000D860186158612E4B002199600221596106
:100020000121F02299502B49196001219960352056
:1000300000F044F80222904214D00621196600F024
:1000400034F8196E01211966002018661A6600F04E
:100050002CF8196E196E196E052000F02FF8012189
:100060000842F9D1002199601B49196000215960AB
:100070001A491B48016001219960EB211966A021F2
:10008000196600F012F800219960164914480160C1
:100090000121996001BC002800D000471248134993
:1000A000086003C880F30888084703B5996A0420EC
:1000B0000142FBD001200142F8D103BD02B5186610
:1000C0001866FFF7F2FF186E186E02BD00000240BE
:1000D000000000180000070000035F00212200005C
:1000E000F4000018222000A00001001008ED00E03C
:1000F00000000000000000000000000074B24E7A12
:1001000000200420F7010010C3010010C5010010F9
:10011000C1010010C1010010C1010010C101001097
:10012000C1010010C1010010C1010010C701001081
:10013000C1010010C1010010C9010010CB01001065
:10014000CD010010CD010010CD010010CD01001037
:10015000CD010010CD010010CD010010CD01001027
:10016000CD010010CD010010CD010010CD01001017
:10017000CD010010CD010010CD010010CD01001007
:10018000CD010010CD010010CD010010CD010010F7
:10019000CD010010CD010010CD010010CD010010E7
:1001A000CD010010CD010010CD010010CD010010D7
:1001B000CD010010CD010010CD010010CD010010C7
:1001C00000BE00BE00BE00BE00BE00BE00F04BF888
:1001D000103800BEF2EB88717C110510A4110510D7
:1001E0003402001090A31AE700202149086006C8D5
:1001F00081F3088810471F48006800282FD10DA4FC
:100200000ECC002902D000F012F8F9E71A491B4A77
:10021000002000E001C19142FCD1194988471949E9
:1002200088471949884700BEFDE701C901C29A42C3
:10023000FBD37047A4110510C00000201C21002032
:1002400000320510000004200000042000320510D8
:1002500000100420001004200000000070470B482C
:1002600006F01EFC0047EFF30580C0B270470000A7
:1002700008ED00E0000000D020210020000C02204A
:100280006D4A0010C9260010A14B001057560000FF
:1002900006005250ABB3605308670410060052507A
:1002A000861C030218670410060052505422A29DB7
:1002B0002C67041005005250DE65F468003205100A
:1002C000F8B5C0460448054B10B5834203D0044B33
:1002D000002B00D0984710BD1C2100201C210020BD
:1002E0000000000006480749091A8B10C90FC918F9
:1002F00010B5491003D0044B002B00D0984710BD17
:100300001C2100201C2100200000000010B5074C1B
:100310002378002B09D1FFF7D5FF054B002B02D026
:10032000044800E000BF0123237010BD78220020A4
:1003300000000000585E0410054B10B5002B03D0E0
:100340000449054800E000BFFFF7CCFF10BDC046E0
:10035000000000007C220020585E04100800704756
:10036000044B10B518680833984201D007F08AFC96
:1003700010BDC046443B0020044B10B5186808333C
:10038000984201D007F07EFC10BDC046983B00208B
:10039000044B10B518680833984201D007F072FC7E
:1003A00010BDC0465C3B0020044B10B518680833F4
:1003B000984201D007F066FC10BDC0462C3B0020DF
:1003C000044B10B518680833984201D007F05AFC66
:1003D00010BDC046743B0020044B10B518680833AC
:1003E000984201D007F04EFC10BDC046F83B0020FB
:1003F000044B10B518680833984201D007F042FC4E
:1004000010BDC046E03B0020044B10B5186808330F
:10041000984201D007F036FC10BDC046103C0020C9
:10042000044B10B518680833984201D007F02AFC35
:1004300010BDC046C83B0020044B10B518680833F7
:10044000984201D007F01EFC10BDC046143B0020AE
:10045000044B10B518680833984201D007F012FC1D
:1004600010BDC046FC3A0020044B10B51868083394
:10047000984201D007F006FC10BDC046B03B0020FA
:10048000F0B5C646561A04000D00170000B5B310AB
:10049000002E14DB0020002B02D0300007F0EAFB16
:1004A000831998462060A360AF4203D03200290030
:1004B00007F0DAFB4346636004BC9046F0BD014898
:1004C0001EF07CFC585E041070B50D4E34687568E3
:1004D000AC420AD023002068083398420BD018346D
:1004E00007F0D0FBA542F5D13568002D02D02800D9
:1004F00007F0C8FB70BD1834A542EBD1F4E7C04645
:100500008C3B0020F0B50700083704000E0083B0D4
:100510000760002925D008003BF09EF90500030084
:1005200001900F280CD8012807D1327822720022BE
:1005300020006360FA5403B0F0BD0028F7D008E053
:100540000022200001A92AF0CFFA0700019B2060B9
:10055000A36038002A00310007F086FB019B276862
:10056000E5E701481EF012FC8C5E0410F0B51E4B4E
:100570008BB00CCB9B1A0C2B02DD4368002B01D1F6
:100580000BB0F0BD194906AD1C000E68D7680068B5
:1005900004950A2B00D90A24002822D0012B19D156
:1005A000037804A90B72002305942C192370104CB6
:1005B00004332000009302AAEB33029603970BF05A
:1005C0002FFC0498A84201D007F05CFB20000AF041
:1005D000F3FBD5E701002200280007F045FB04A942
:1005E000E1E704481EF0D2FB242500203815002046
:1005F000780802208C5E0410F0B54746CE4680B5E0
:10060000571A9046FA1093009B180C0019015B18BA
:1006100019025B1819045B185B009B18264A060038
:1006200083B0934245D80025002B03D0380007F053
:1006300021FB0500EF193560B760A0450BD12AE01A
:10064000012F33D11B782B72002318346F60C355F0
:100650001835A0451FD028002368083099466768E0
:100660002860002B1DD001970F2FE9D90022280008
:1006700001A92AF039FA019B2860AB603A0049468B
:1006800007F0F2FA0023019F286818346F60C35501
:100690001835A045DFD1756003B00CBC9046994673
:1006A000F0BD002FD0D005481EF070FB002FCBD03E
:1006B000E4E703481EF082FB555555058C5E041097
:1006C000585E0410F0B5454657464E46DE46E0B546
:1006D000150001220C001100D84F06003B78ADB088
:1006E0001940BFF35B8F88461A4200D17EE1012298
:1006F0001100D34B99461B78BFF35B8F1940884696
:100700001A4200D158E101221100CE4B99461B78C4
:10071000BFF35B8F194088461A4200D130E10122B5
:100720001100C94F3B78BFF35B8F194088461A42CE
:1007300000D1AFE001221100C44F3B78BFF35B8FC3
:10074000194088461A4200D1C6E101221100C04F6B
:100750003B78BFF35B8F194088461A4200D1A1E174
:10076000072C00D892E0002E00D1E0E1B94B04AE96
:100770001F685C680296002F00D168E220940F2C5D
:1007800000D997E2012C00D0EFE23B7802AA137265
:100790003300002203941A55AF4B02A806CB2AF06F
:1007A000DFFBAE4B039A9B1A032B00D8EDE2042229
:1007B000AB4902A82AF0D4FB07000AAB089398467D
:1007C000036808370400BB4200D1A6E2089383689F
:1007D0000A93636808A80993002363602372A14BFE
:1007E000276006CB2AF0BCFB070010AB0E9399469E
:1007F000036808370400BB4200D188E20E93836887
:100800001093636898480F930023276063602372F6
:100810000F9A0E9929F0DAFC036804000C3B1B6860
:10082000C318DF6F002F00D1ADE23B7F002B00D15A
:1008300023E22723F95C200029F068FC29F0D6FB8D
:100840000E98484501D007F01DFA0898404501D0A0
:1008500007F018FA0298B04201D007F013FA834B60
:100860001C68072C12D9824B1968824C0B7A0A79C2
:10087000200009780AF07EFE002D00D053E12DB053
:100880003CBC90469946A246AB46F0BD7A4BA400CC
:100890001B599F4638000CF0B9F8002800D149E7F1
:1008A00022AA20929146754A41462292042220AB08
:1008B0002192197328A926917149279228914146BE
:1008C000203299546F4B30209A46196059609960D4
:1008D00007F0D0F95346804618603023524643440F
:1008E0009360009343460830219A1860209B9346FA
:1008F0000193002B00D12EE21A920F2A00D9E8E1D1
:10090000012A00D03BE24246019B1B7813725A46F3
:1009100043465A60002383544046424643462030B3
:1009200027999061269A8B4618330192002A00D1AC
:100930000BE21A910F2900D9F5E1012900D01AE242
:10094000019B41461A782023CA545A464346DA612D
:10095000002383545346009A38005A600CF072F812
:10096000494838F0ABF8269828AB984201D007F0F8
:1009700089F92098484500D1DCE607F083F9D9E6EB
:1009800048460CF043F8002800D1C8E6354B1A0061
:100990009C4608321A603D4B83CB83C21B78484685
:1009A000137062460D235360434653750CF04AF8AA
:1009B000374838F083F8B2E648460CF027F80028AC
:1009C00000D1A0E6244B9C46624608331360314AAE
:1009D00083CA83C362460C2353604346484613755B
:1009E0000CF030F82C4838F069F88CE638000CF040
:1009F0000DF8002800D17AE6164B20A999464A4600
:100A00000833136012230022484620932AF06CF822
:100A10004B46209A21499A601860122207F024F967
:100A20004A464146209B380053601268D1540CF06E
:100A300009F81B4838F042F859E6C046A4240020C3
:100A400098240020A0240020A8240020AC2400200A
:100A50009C240020743B00202C3B0020FFFFFF3F24
:100A6000745F04105C3B0020283800202C15002007
:100A7000E824002078080220845F04106261636B20
:100A8000666F72658C3B0020C9040010285F04105B
:100A900091030010185F0410A9030010045F0410F4
:100AA000C103001038000BF0B1FF002800D157E659
:100AB000B74BB8491A009C4608321A6009C909C2E6
:100AC000634608225A60424638001A740BF0BAFF97
:100AD000B14837F0F3FF43E638000BF097FF0028EA
:100AE00000D132E6AD4B20A999464A46083313603F
:100AF000152300224846209329F0F6FF4B46209A02
:100B0000A7499A601860152207F0AEF84A46414698
:100B1000209B380053601268D1540BF093FFA1481A
:100B200037F0CCFF11E620000AF050FEA7E69E4BFE
:100B300016AE1F685C681496002F00D18BE02094DD
:100B40000F2C00D9A7E0012C00D008E150213B7800
:100B500002AA521813703300002215941A55934BB1
:100B600014A806CB2AF0FCF9914B159A9B1A032B7B
:100B700000D80AE104228F4914A82AF0F1F90822CA
:100B800090461CAF1A97036880440400434500D187
:100B9000B7E01A9383681C9363681AA81B934346B3
:100BA0002360002363602372834B06CB2AF0D8F9BD
:100BB0000822904622AB20939946036880440400A3
:100BC000434500D197E020938368229363687B4874
:100BD000219343462360002323726360219A209966
:100BE00029F0F4FA036804000C3B1B68C318DB6FA0
:100BF0009846002B00D1C6E01B7F002B2FD0272367
:100C00004246D15C200029F081FA29F0EFF92098C2
:100C1000484501D007F036F81A98B84201D007F0DD
:100C200031F81498B04201D007F02CF8644B1C68DE
:100C300017E6644B18E6644B16E6644B14E6644B07
:100C400012E6644B10E6644B0EE6644B0CE6002C97
:100C500000D19DE57CE0002C00D17CE778E04046A7
:100C600012F044FB43461B685D4A9B690A2193428C
:100C7000C8D0404698470100C4E7380012F036FB60
:100C80003B68574A9B690A21934200D1D3E538005B
:100C900098470100CFE5002220A914A829F024FFDD
:100CA000209B149016932200390006F0DDFF209C53
:100CB000149B51E7002220A902A829F015FF209BD0
:100CC000029004932200390006F0CEFF209C029B84
:100CD0005FE5002240461AA929F006FF43461A9A0A
:100CE00018609A605A46019906F0BEFF1A9B9B460F
:100CF000434618680BE641464846083206F0B4FF02
:100D000064E741463800083206F0AEFF44E710229F
:100D10003900484606F0A8FF73E510223900404626
:100D200006F0A2FF55E5002218001AA929F0DCFE02
:100D300043461A9A98611A625A46019906F094FF3E
:100D40001A9B9B4643469869FFE5002900D1FCE5C4
:100D500024481EF01BF8002A00D1D8E5F8E733003C
:100D6000002C00D1F8E630009DE73300002C00D1C4
:100D70000FE53000A6E7002900D1E6E5DCE7002A10
:100D800000D1C4E5AEE71DF0F1FF17481EF016F8DC
:100D9000443B0020505F041061030010983B00208A
:100DA000385F041079030010743B00202C3B0020B6
:100DB000FFFFFF3F7C5F04105C3B002028380020D1
:100DC000301500203C250020F4240020DC240020E5
:100DD000482500200C25002018250020D0240020C4
:100DE0005D0300108C5E04105C5F04100122F0B5FE
:100DF00015005F4C87B02378BFF35B8F1D401A420C
:100E000048D0012215005B4C2378BFF35B8F1D4057
:100E10001A4200D172E0584B1E68584B1B78002BC9
:100E200050D1574B012219680120FFF74BFC1420C9
:100E300003F0EEF9534B002219680120FFF742FC42
:100E4000514C216863685B1A9A10072B00D889E01F
:100E500004274B684D4D4E49059304AAEF23280003
:100E6000009704960AF0DCFF0ACC5B1A9A100B2B51
:100E700000D873E08B68280046490393059304AAC1
:100E8000EF23009704960AF0CBFF280009F094FFA7
:100E900007B0F0BD20000BF0B9FD0028B1D03C4AEE
:100EA0003D4B11000831116041CB41C11B7820003E
:100EB0000B700923557453600BF0C4FD374837F0AD
:100EC000FDFD9EE7324B364806CB29F07FF9314BCA
:100ED00006CB29F07BF9036804000C3B1B68C318A0
:100EE000DD6F002D42D02B7F002B2AD02723E95C19
:100EF000200029F00BF929F079F892E720000BF097
:100F000085FD002800D186E7224E04A9330008336E
:100F10003360102300223000049329F0E5FD049B88
:100F20002049B3601022306006F09EFE049B3268B8
:100F300020007360D5540BF085FD1B4837F0BEFDD3
:100F400069E7280012F0D2F92B68184A9B690A2138
:100F50009342CDD0280098470100C9E702211448E8
:100F60001DF044FF012112481DF040FF1DF0FEFE60
:100F700090240020942400203815002030090220FD
:100F80002C15002030150020242500207808022090
:100F9000FC3A0020143B0020A45F04105104001010
:100FA00028380020B05F0410390400105D030010E1
:100FB000B85E0410F0B58BB000290ADB214B1C6829
:100FC0005A68121B9210914203DA35D24368002B03
:100FD00001D10BB0F0BD1C4A890006AE0F5915684F
:100FE0001C00006804960A2B1DD8002827D0012B6E
:100FF0001BD1037804A90B720023059434192370C4
:10100000124C04332000009302AAEB33029503979D
:101010000AF006FF0498B04201D006F033FE20002B
:1010200009F0CAFED5E70A24DFE7010022003000FC
:1010300006F01AFE04A9DFE705481DF0D7FE0548B3
:101040001DF0A4FE24250020381500207808022079
:10105000B85E04108C5E041070B5050086B00029DF
:1010600039D14368002B01D106B070BD6E4602AC89
:101070000191009430003172D91D29F0F1FD2C4B03
:10108000019A9B1A062B50D907222A49300029F0D1
:1010900067FF06CD300029F063FF30000221FFF723
:1010A00089FF0098A04201D006F0ECFD224B00948D
:1010B0001A68300002929A88A2809B79A371072354
:1010C00001930023F373FFF751FA0098A042CBD0AD
:1010D00006F0D8FDC8E7194B02AC00941A686E46BA
:1010E00002929A883000A2809B790221A371072383
:1010F00001930023F373FFF75DFF0098A04201D036
:1011000006F0C0FD0E4B00941A68300002929B88D6
:10111000A380062301930023B373FFF727FA0098F7
:10112000A042A1D006F0AEFD9EE706481DF046FEA7
:10113000FFFFFF3FCC5F0410D45F0410C45F0410B6
:1011400064BB04105C5F041008B4F0B50D0011001E
:1011500082B01C236E460400C81D00AFC008FB18F7
:10116000C000301A04CB85463B60A847050020002C
:1011700008306E4620607D600F2D10D8012D0BD1F8
:101180003378237200236560BD464355200002B0CA
:10119000F0BC08BC01B01847002DF3D007E00022D6
:1011A0002000391D29F0A0FC7B682060A3602A0084
:1011B000310006F059FD7D682068E3E7F0B50122B3
:1011C0004E464546DE465746E0B51600D94D04006A
:1011D0002B7899B0BFF35B8F1E401A4200D147E1D4
:1011E00001221600D44D2B78BFF35B8F1E401A42AC
:1011F00000D124E101221600D04D2B78BFF35B8F84
:101200001E401A4200D101E108AB06939B46002321
:10121000CB4E06AF07933B723378BFF35B8FDB0790
:1012200000D499E0C74B01221B6801209946C64BA8
:101230001968FFF747FA142002F0EAFFC34B0022B7
:1012400001201968FFF73EFA012C3ED0022C14D081
:10125000BF4B9846404609F0AFFDFA20C00002F0AF
:10126000D7FF0698584501D006F00CFD19B03CBCDC
:1012700090469946A246AB46F0BDB64B1B78002B74
:1012800000D016E1B44E72683368D11A8A100F2963
:1012900000D86BE2AE4A01249046B04A12AD9246A5
:1012A00014AFA200D358012C00D1F0E1022C00D1E0
:1012B00019E14A4612926B6004232A0000934046CB
:1012C000A749EB330AF0ACFDC4E7A34E336872685C
:1012D000934200D145E2A34C12AD200009F070FC0E
:1012E000A14B1022A14900902800FFF72DFF3800E4
:1012F000139A129929F034FE129814AB984201D037
:1013000006F0C0FC934B1B78002B00D080E1904B83
:1013100001249A4633687268D21A9210A24200D809
:1013200004E1A200D3589846012C00D13CE14B4681
:101330002B6043466B60022C00D1B0E004232A00EE
:10134000009339005046EB33D0460AF069FD032C78
:1013500000D17FE70134DDE730000BF057FB0028B8
:1013600000D15FE70CAB9A460EAB99460C93804BCD
:101370001A685B6803929846002A00D1D8E112935C
:101380000F2B00D9BDE1012B00D0E4E113785246C8
:1013900013724A46434641460D93002353540D9A17
:1013A000744B9B1A032B00D8E6E104225046724985
:1013B00029F0D6FD6A4B504606CB29F0D1FD082214
:1013C0006E4B0500180092460830186098462B684E
:1013D000AA44534500D1B0E1424613604346AA688F
:1013E0009A6043466A6830005A6053462B60002377
:1013F0006B602B720BF026FB614837F05FFB0C989B
:10140000484500D10EE706F03DFC0BE728000BF045
:10141000FDFA002800D1F7E65A4B9C466246083395
:101420001360594A83CA83C362460C232800536061
:1014300016750BF007FB554837F040FBE4E6280033
:101440000BF0E4FA002800D1D4E6454B50491A00CD
:1014500008321A60086898608988280091800622FE
:101460009E735A600BF0EEFA4A4837F027FBC1E64C
:1014700028000BF0CBFA002800D1B1E63C4B4649DE
:101480001A0008321A6081C981C2082228005A60F5
:101490001E740BF0D7FA414837F010FBA0E6042386
:1014A0002A00009337492A48EB330AF0B9FC01348B
:1014B00030E7324B3A4806CB28F088FE0368040038
:1014C0000C3B1B68C318DD6F002D00D152E12B7F50
:1014D000002B00D107E12723E95C200028F016FE4D
:1014E00028F084FDCEE652462F60128840463A80AE
:1014F000524692782900BA700322139200220D936B
:10150000EA7204234A4600930C92EB330CAA0AF0C9
:1015100087FC1298B84201D006F0B4FB33687268B9
:101520000134D21A9210A24200D9BAE621001D4815
:101530001DF05CFCB4240020C0240020B82400204E
:10154000BC240020381500202C1500203015002068
:10155000780802203009022024250020C85F0410EA
:10156000103C002050030220B8600410E569001010
:10157000C83B0020FFFFFF3F00600410F83B002045
:10158000D9030010E03B0020F05F0410F1030010CD
:10159000E85F041009040010DC5F0410210400104F
:1015A00028380020B85E041014AB2B60744B1A6806
:1015B0005B6805920393002A00D1B3E00C930F2BD4
:1015C00000D97EE0012B00D0BCE013782B720CAB6D
:1015D00014AA049300230399280013915354694BD0
:1015E00006CB29F0BDFC4B46049A6748136043467E
:1015F0005360042329000093EB330AF011FC129886
:1016000014AB984200D1A5E606F03CFB013481E61C
:101610005B4B5E4806CB28F0D9FD5A4B06CB28F031
:10162000D5FD804601225A4928F0D0FD594B40464D
:1016300006CB28F0CBFD804603680C3B1A684A2392
:101640004244D16899430B0008210B43D3605249AF
:10165000022228F0BBFD200009F0B2FA010040464A
:1016600028F088FF036804000C3B1B68C318DB6F7D
:101670009846002B7ED01B7F002B14D02723424698
:10168000D15C200028F042FD28F0B0FC3FE64A463D
:101690006B6004232A60404600932A003849EB33EC
:1016A0000AF0BEFB3AE7404611F020FE43461B68B5
:1016B0003A4A9B690A219342E3D040469847010089
:1016C000DFE70CAB190000222800049329F00CFA84
:1016D0000C9B12901493039A059906F0C5FA0C9B83
:1016E000129A039376E7280011F000FE2B682B4A2C
:1016F0009B690A21934200D1EFE628009847010038
:10170000EBE612AD00222900504629F0EDF9129BBC
:101710000C900E934246039906F0A6FA129B0C9A7F
:10172000984637E6002B00D151E71D481DF02EFBEF
:101730004A46002B00D12DE6F7E75146083206F065
:1017400093FA4EE60CAB0493039B14AA002B00D132
:1017500040E71000BFE74A46002B00D11AE6484692
:10176000D8E700220F4811001DF040FB03210D486F
:101770001DF03CFB1DF0FAFA0B481DF01FFBC046A4
:10178000C83B0020103C00207808022028380020A8
:101790004C5F0410E03B0020086004105D03001063
:1017A0008C5E0410B85E04105C5F04100122F0B57A
:1017B000C646160000B5694D94B02B78BFF35B8F19
:1017C0001E401A4200D184E0654C664B0122196824
:1017D0000120FEF777FF142002F01AFD624B002271
:1017E00001201968FEF76EFF266804AD6468029553
:1017F000002E00D18AE00E940F2C5BD8012C00D073
:10180000A3E06A46337813742B00002203941A5520
:10181000039A564B9A4200D19DE00122544902A8F6
:1018200029F09EFB534B08A800229B5E52491022D0
:101830000093524BFFF788FC039C099A029BA01867
:10184000AB4200D17DE0049988425BD908990AAE89
:10185000B046B14200D176E00A9EB0425DD902A8FE
:1018600029F07EFB0400270010AE0E96236808378F
:10187000BB4260D00E93A368109363680EA80F93C9
:1018800000230121276063602372FFF793FB0E980A
:10189000B04201D006F0F6F90898404501D006F0B4
:1018A000F1F90298A84201D006F0ECF914B004BC9A
:1018B0009046F0BD00220EA902A829F015F90E9B52
:1018C000029004932200310006F0CEF90E9C029B98
:1018D0009BE728000BF09AF8214C002800D174E710
:1018E0002300274A0833236011682800A1609288EA
:1018F0009A800623A67363600BF0A4F8214837F0A2
:10190000DDF862E70AAB98460899A8E72B00002C9F
:1019100000D17AE71C481DF039FA0094002200211A
:1019200008A829F053FA0400270010AE0E96236889
:101930000837BB429ED110223900300006F094F9DE
:101940009BE70F2180E70F2687E72B00002C00D1B3
:101950005BE72800B6E70D481DF030FAB024002000
:10196000B03B00202C15002030150020FFFFFF3F6A
:101970004C5F04106C080220E5690010B860041088
:101980000C600410690400108C5E04105C5F04108D
:1019900070B5046845680600AC420AD02300206890
:1019A000083398420CD0183406F06CF9A542F5D1F2
:1019B0003568002D02D0280006F064F9300070BDB3
:1019C0001834A542EAD1F3E7F0B5DE4657464E4655
:1019D0004546E0B5444CA544012800D1A8E0434C5D
:1019E000206808F0D7FE00226068110001F008FFAF
:1019F00060681F2101F0E2FE0022A068110001F0E2
:101A0000FFFEA0681F2101F0D9FE394B994630CB6B
:101A1000AC4207D02068002861D00C3406F032F9BF
:101A2000AC42F7D14B461868002801D006F02AF9DD
:101A3000304B1868002801D006F024F92E48FFF733
:101A4000A7FF2E4B1868002801D006F01BF92C4B7D
:101A50001868002801D006F015F92A4B18680028EC
:101A600001D006F00FF9284B1868002801D006F0C5
:101A700009F9264B1868002801D006F003F9244B19
:101A80001868002801D006F0FDF8224B18680028DD
:101A900001D006F0F7F8204B1868002801D006F0B6
:101AA000F1F81E4B1868002801D006F0EBF81C482E
:101AB000FFF76EFF1B48FFF76BFF1B4B18680028F2
:101AC00001D006F0DFF819480BF0B2FA95239B001D
:101AD0009D443CBC90469946A246AB46F0BD0C34B2
:101AE000A54297D19EE7C046ACFDFFFF50080220FB
:101AF000302100204021002030250020F424002047
:101B00002021002048250020E8240020182500205E
:101B10000C250020D02400203C250020DC240020BF
:101B2000602100205021002024250020F83A0020C8
:101B3000F9480BF06DFAF94B4EAC9846230042463B
:101B400023CA23C300251268F5481A60210052AA4F
:101B5000056045608560FEF793FCF2492000FEF7C2
:101B6000D1FCF14E54A83100FEF7CCFCEF495AA845
:101B7000FEF7C8FCEE4960A8FEF7C4FC66AB18008F
:101B8000EC499946FEF7BEFCEB496CA8FEF7BAFC9F
:101B9000EA4972A8FEF7B6FCE94978A8FEF7B2FC5C
:101BA00000220023E74821000260436085607EAA8E
:101BB000FEF722FD7EAD183D2B00286808339842C1
:101BC00000D12AE306F05EF8A542F4D1DE492000F8
:101BD000FEF798FC310054A8FEF794FCDB495AA8A4
:101BE000FEF790FCDA4960A8FEF78CFCD94948461C
:101BF000FEF788FCD8496CA8FEF784FCD74972A888
:101C0000FEF780FCD64978A8FEF77CFC0022002372
:101C1000D44821000260436000237EAA8360FEF75F
:101C2000EBFC7EAD183D2B0028680833984200D1AC
:101C3000EFE206F027F8A542F4D100250C2200219E
:101C4000200006F00BF8C84821000560456085605B
:101C500051AAFEF715FC290008224FA805F0FEFF47
:101C60007823C248210005604560856051AA9A46E4
:101C70004E93FEF705FC43462200103343CB43C28C
:101C8000BB48210005604560856051AAFEF7F8FB5E
:101C90008023FF22B748A56005604E924F934560B0
:101CA0008560210051AAFEF7EBFBFF23FF22B2481B
:101CB000A56005604E924F9345608560210051AA52
:101CC000FEF7DEFB29000C22200005F0C7FF53467B
:101CD000AA48210005604560856051AA6360FEF74F
:101CE000CFFB002200234E924F935346A44821007D
:101CF00005604560856051AAA360FEF7C1FB4346BD
:101D000022001C3343CB43C2002300229D48210004
:101D100002604360856051AAFEF7B2FB4346220091
:101D2000283343CB43C2984851AA0560456085607B
:101D30002100FEF7A5FB95492000FEF7E3FB94493F
:101D400054A8FEF7DFFB93495AA8FEF7DBFB924944
:101D500060A8FEF7D7FB91484A460560456085605C
:101D60002100FEF749FC66AB99461D00183D2B008B
:101D700028680833984200D153E205F083FFA5425A
:101D8000F4D164220021200005F068FF172363606E
:101D9000013BA360013BE360013B2361013B6361C5
:101DA000013BA361013BE361013B2362013B6362B1
:101DB000013BA362013BE362013B9B462363013B82
:101DC0006363013BA363013B002500210022E36321
:101DD000013B9A462364013B6364013BA364013BDE
:101DE000E364013B6E482365013B6365013B016091
:101DF0004260A3652100013B856067AAE365FEF7A9
:101E00003FFB524629004CA805F028FF0021002284
:101E1000FF234E914F92200022004BA9A5601E0087
:101E20004B93FEF72DFB3F23FF221EA91E921F930B
:101E300051A821AAE5602561656192462095FEF7CB
:101E40001FFB7F23FF2200211A921B93002254A81C
:101E5000549155921DAA1AA925621C95FEF710FBF4
:101E6000BF23FF2216A91692179357A819AA6562D5
:101E7000A562E5621895FEF703FBFF23FF22002110
:101E80001292139300225AA85A915B9215AA12A992
:101E9000A5631495FEF7F4FAFF23BF220EA90E9254
:101EA0000F935DA811AAE563256465641095FEF79C
:101EB000E7FAFF237F2200210A920B93002260A8F9
:101EC000609161920DAA0AA925650C95FEF7D8FAD2
:101ED000FD233F2206A90692079363A809AA656518
:101EE000A565E5650895FEF7CBFA5A46290048A88E
:101EF00005F0B4FE0021002248466691679248A989
:101F00004BAAA5664996FEF7BBFA45AA91464246FA
:101F1000343213004A4645E0F83A0020EC600410E1
:101F20002425002014600410A8B7041018600410C1
:101F30001C60041020600410246004102860041049
:101F40002C60041050210020306004103860041010
:101F5000446004104C600410546004105C60041071
:101F60006460041060210020DC2400203C25002057
:101F7000D02400200C25002018250020E824002073
:101F80004825002020210020F42400206C6004104B
:101F90007060041058B304107460041030250020E1
:101FA00040210020370043CB43C2494669A848AAD4
:101FB000E56625676567FEF763FA42AA93464246DF
:101FC000403213005A4643CB43C2802300210022F3
:101FD0006CA86C916D9259464A46E550FEF750FA4E
:101FE0003FAA914642464C3213004A4643CB43C275
:101FF0008423E5500433E550043349465A466FA81C
:10200000E550FEF73DFA3CAA93464246583213008B
:102010005A4643CB43C298230021002272A87291F2
:10202000739259464A46E550FEF72AFA39AA914674
:102030004246643213004A4643CB43C29C23E550D8
:102040000433E550043349465A4675A8E550FEF777
:1020500017FA36AA93464246703213005A4643CBCB
:1020600043C2B0230021002278A878917992594682
:102070004A46E550FEF704FA33AA914642467C32BE
:1020800013004A4643CB43C2B423E5500433E55022
:1020900004335A464946E5507BA8FEF7F1F93B0068
:1020A00000210022373B7E917F92029103927EA80D
:1020B00002A9E55005AA0497FEF7E2F930AB9B466A
:1020C0005A467A4B00279846083343CB43C2CC2369
:1020D000E5500433E550043359464A4681A8E5509B
:1020E000FEF7CEF92DAB994643464A46143343CB0F
:1020F00043C20026E0238496859749465A4684A821
:10210000E550FEF7BDF92AAB9B4643465A462033BD
:1021100043CB43C2E423E5500433E550043359462E
:102120004A4687A8E550FEF7ABF927AB99464346E8
:102130004A462C3343CB43C200270026F8238A9615
:102140008B9749465A468AA8E550FEF799F924AB81
:102150009B4643465A46383343CB43C2FC23E550A3
:102160000433E55004334A4659468DA8E550FEF73E
:1021700087F943465246443343CB43C28823002663
:1021800000275B005A46909691975146E55090A8DB
:10219000FEF776F9464B8A2099461E605F609D6087
:1021A000400005F067FD4B46186003004A461533B2
:1021B000FF330600A04693601FE080229205934201
:1021C00071D2504605F056FD434606CB531A070020
:1021D0009B465346FB1837607760B3608A4203D052
:1021E0005A46380043F028FE0C239C465F44E044E6
:1021F00093AB77600C36984517D0434606CB531AFD
:102200009A4635609B107560B560D6D1D3460027DD
:10221000DFE7A54200D005E50FE5A54200D0CAE4FE
:10222000D4E4A54200D0A1E5ABE54B46909890AD33
:102230005E60002809D005F025FD2B000C3BAC4268
:1022400007D01D0028680028F5D12B000C3BAC42BC
:10225000F7D11849184808F0E7FC184C184B00262D
:102260002360142363600133A360164B01272361AD
:1022700016232000E36008F0E3FB134DFF230F2239
:10228000210028000196009700F072FCEC23FE224A
:10229000EF5492050433EA50FF220433EA500B4B0B
:1022A0001E71FFF713FC1CF051FDC0466C61041059
:1022B00030210020B8400020780802205008022079
:1022C00024160020801A0600500302206C08022009
:1022D000F8B5CE46474604000D0080B581421CD0BB
:1022E0004B680F689946DE1B0368B210984641465A
:1022F00083685B1A9B109A4214D84068411A8B106D
:102300009A422ED84F453CD032003900404643F027
:1023100093FD23689C466644666020000CBC904692
:102320009946F8BD0025002A09D080239B059A42D2
:1023300033D2300005F09EFC2368050098464F45D7
:1023400004D032003900280005F08EFC4346002BF3
:1023500002D0404605F096FCAE192560A660666086
:10236000DBE70A1E0AD03900404643F065FD6B6882
:102370006068994623682F689846C21AB91849457B
:1023800002D146446660C8E74B465A1A43F054FDF2
:1023900023689C4666446660BFE71CF0D7FCC046D5
:1023A000F0B5DE4657464E464546E0B58FB008AC20
:1023B000B24B00210C2220000027DF5F05F04EFC0D
:1023C000002200230492059300230C20069305F0BD
:1023D00051FC050021000C350C220695049005F0F7
:1023E00043FC2200A64B0595503323CB23C21B6828
:1023F0001020136005F03EFC10222100050005F0BE
:1024000033FCA04E3378002B00D080E09E4B1B782D
:10241000002B0BD09D4A0CCA9B1A9B1000D11FE1C8
:10242000012B00D821E1022B00D114E1002F59DB50
:1024300078B2182104F062FB337889464FB2002B42
:1024400000D0C7E0924B9846434619685868401A36
:10245000801083001B181A019B181A029B181A047B
:102460009A1852001218974239D2FB43DB171F40CB
:10247000974200D3FEE07B00DF19BF00C91904A812
:10248000FFF726FF049A059B9B1A9B1000D1E7E0FB
:102490001168C8B20290012B00D8E6E05068C7B2BC
:1024A000B846022B00D1D6E09368DAB29146327872
:1024B000002A31D14B4642460299764808F08CFBFF
:1024C000280005F0DFFB0498002801D005F0DAFBB6
:1024D0000FB03CBC90469946A246AB46F0BD571E95
:1024E0007FB2C5E77842182140B204F007FB337889
:1024F0000F00002B00D085E0674A13685268D21A9B
:102500009210914200D3B5E0BF00DF579AE739003F
:10251000624805F0DDFD79E7FF2211400E00010061
:1025200011401A40130003920F000A005C4831006A
:1025300005F0CEFD02225B4B02211A605A4B0120AE
:102540009A460423524613600122FEF7BBF814207A
:1025500001F05EFE5346002219680120FEF7B2F832
:10256000524B10229B46524B20009A4600965B46E7
:102570005146FEF7E9FD20000021FEF71BFD0898FB
:102580000AAEB04201D005F07DFB5B4610225146F9
:1025900020000097FEF7D8FD20000121FEF70AFD7C
:1025A0000898B04201D005F06DFB039B1022514604
:1025B000200000935B46FEF7C7FD20000221FEF7D6
:1025C000F9FC0898B04201D005F05CFB394801F0F5
:1025D0001FFE6FE72E4B38485A6898461B68D21A80
:1025E000921093009B1819015B1819025B181904CB
:1025F00059184900891805F06BFD49462F4805F028
:1026000067FD21E7224B2C485A6898461B68D21A6E
:10261000921093009B1819015B1819025B1819049A
:1026200059184900891805F053FD3900234805F071
:102630004FFD194A13685268D21A9210974219D264
:10264000BF00DF573378002B00D1FDE639001C486E
:1026500005F03EFDF8E602221A4811001CF0C6FB08
:102660000022184811001CF0C1FB0122154811007E
:102670001CF0BCFB390013481CF0B8FB6C080220AE
:102680006C6104103009022034150020F42400206D
:1026900030210020500302204021002078600410E7
:1026A000986004102C15002030150020B86004102C
:1026B000E5690010B80B0000A8600410BC600410AD
:1026C00084600410B85E0410F0B5DE4645465746F7
:1026D0004E46E0B5A1B0DE4902A8FDF713FFDD4983
:1026E00008A8FDF70FFF192001F0B6F8D0238022CB
:1026F0001B0692045A6205F0F7FCD74808F0BEFAB0
:10270000C82001F085FDD54D012229680120FDF783
:10271000D9FF142001F07CFDD14C0022012021685A
:10272000FDF7D0FFCF491AA8FDF7ECFE1AA800214B
:10273000FEF740FC1A981CAB9846984201D005F071
:10274000A1FAC9491AA8FDF7DDFE1AA80121FEF772
:1027500031FC1A98404501D005F094FAFA20C000E7
:1027600001F056FD0023C14F0021C1483B6008F035
:10277000E1F90190002800D19BE0BD4808F028FA5B
:10278000012204230221100023602960FDF79AFF33
:10279000142001F03DFD002201202168FDF792FF89
:1027A000B4491AA8FDF7AEFE1AA80121FEF702FCF3
:1027B0001A98404501D005F065FA0120FEF7FEFCAD
:1027C000FA20800001F024FD012229681000FDF7A5
:1027D00079FF142001F01CFD216800220120FDF783
:1027E00071FFA34808F0F4F9A34BA44C9A46A44BFC
:1027F000A44D9B46009452E0516101225340009A3F
:102800009B4813700F232A689A4300232A603B7168
:1028100008F0DAF9002800D08FE00C218E4808F08B
:10282000D1FA002800D1A7E001232A6813432B60C6
:102830005246534652681B68934200D181E110AE64
:102840000E961A685C689146002A00D1DDE01A9461
:102850000F2C00D9CAE0012C00D051E138211378A7
:1028600002AA52181370320000230F940EA80121FF
:102870001355FEF7F1FB0E98B04201D005F002FAB5
:102880003B79002B33D12B681B0705D0FA20800041
:1028900001F0BEFCFEF78AFF642001F0B9FCD022F3
:1028A0008021009B12061B788904002BA4D1916122
:1028B000A3E70220D0268025FEF780FCFA2036060A
:1028C000AD044000756101F0A3FCFEF78FFA6B4C7C
:1028D000756107E075610122FA2053408000237082
:1028E00001F096FC2378002BF4D1B561F3E72B6857
:1028F0000F2293432B604246002359461A923B71A4
:1029000009681AA811605A46414692888A805A4638
:1029100092798A7107226F211B9202AA52181370B2
:10292000FDF724FE1A98404501D005F0ABF90021CF
:102930000020554A02F0CCFCAEE74D4808F062F9A1
:10294000019B002B04D10222BB5E834200D164E7CD
:102950003A887B88D31A1B181BB23B807B80FFF719
:102960001FFDFEF723FF00230C213B48019308F0D5
:1029700029FA002800D057E70D21374808F022FA3D
:10298000002846D002232A6813432B6053460ACB03
:10299000581AC01083001B181A019B181A029B18A2
:1029A0001A049A1852001218012A00D8CEE016AB69
:1029B00014938E699946CC69002E43D01A940F2C3B
:1029C00031D8012C00D0B3E05021337802AA52183C
:1029D00013704B460022159414A801211A55FEF7D6
:1029E0003BFB1498484500D048E749E700221AA964
:1029F0000EA828F079F81A9B0E90109322004946F1
:102A000005F032F91A9C0E9A2EE7002C1CD13200E8
:102A10002AE70E21104808F0D5F9002838D0042301
:102A20002A68134364E700221AA914A828F05CF866
:102A30001A9B149016932200310005F015F91A9C88
:102A4000149BC7E7002CC5D010481CF09FF9C04666
:102A50000C670410A8630410780802202C150020CD
:102A600030150020C8600410D06004106C080220EB
:102A700050030220D86004103025002032090220C3
:102A8000E4600410B4400020FFFF7F008C5E04105F
:102A90000F21324808F096F9002800D1F0E608230B
:102AA0002A6813432B6053460ACB581AC010830080
:102AB0001B181A019B181A029B181A049A18520024
:102AC0001218032A46D943461A938E6CCC6C002EFA
:102AD0002BD014940F2C19D8012C2ED168213378C7
:102AE00002AA52181370434600221B941AA801210F
:102AF0001A55FEF7B1FA1A98404500D0BEE6BFE677
:102B00003200002C00D1AFE6300077E7002214A994
:102B10001AA827F0E9FF149B1A901C932200310099
:102B200005F0A2F8149C1A9BDEE7002CDCD08BE7A2
:102B3000002C00D14EE718007DE7002CD4D0404691
:102B4000ECE70022064811001CF050F9012104486E
:102B50001CF04CF9032102481CF048F978080220C7
:102B6000B85E041010B50120FEF72EFF10BDC04660
:102B700070B5040004A820C8A3600078454B2074F9
:102B8000200063612160227100210822E560183075
:102B900005F064F82000404D08220021203005F0A7
:102BA0005DF8A5673D4D0121E56780253C4A3D4B19
:102BB00022643D4AA36262643C4A3D4BA2643D4AA2
:102BC000E36222653C4A3D4B62653D4A2363E26510
:102BD0003C4A3D4B62663D4A6363A2663C4A3D4BBC
:102BE000E2663D4AA36322673C4B3D4A3D483E4E68
:102BF000E363E064A3652166626766510435605152
:102C000088203A4DC0262550394D04302550394D85
:102C10000430225004302550374D04302550374DB4
:102C200004302550364D04302550364D04302550A3
:102C3000354D04302550354D0430255003250430E2
:102C40002550334D04302550324D04302550BC25DD
:102C50003148B602605104356651304E0435665134
:102C600004356251CC222E4DA5502E4D0432A55074
:102C70002D4D0432A5500432A05080200432800231
:102C8000A0502A480432A0500432A350E823200068
:102C9000E15070BD33335340009ECAC703000101A9
:102CA000019E9C9401000105010001020000737463
:102CB000000573749A9201000104000150C401C917
:102CC00001C99B9300037172CBC8010040C2009EF2
:102CD0009D9501000100000200010004737450C4BE
:102CE000717240C250C4019E070173749B9303002C
:102CF00000030605009ECBC80300000405037172A3
:102D000040C200C99D950200030001006C6D70C0B7
:102D1000020000060300717240C2000000050402B8
:102D200000C99C94020000070200717201070000B4
:102D3000007940B27047C04683680B4A10B5934291
:102D400009D0D02212065068D84003000120184054
:102D50000123584010BD0179F922006807F0D0FE28
:102D600001231840F6E7C046FFFFFF7F70B5F92248
:102D700004000179006807F0C3FE002105000A2065
:102D800001F02EFAFE23F9222B402179206807F06A
:102D9000A9FE70BD10B5202911D8002914D0202912
:102DA00012D8124A8B00D3589F46012301799F22E3
:102DB000006807F097FE012010BD0023F6E74029C8
:102DC0000AD007238029F1D0007C0028F4D00848DD
:102DD00005F07EF90020EFE70623E7E70523E5E7A6
:102DE0000223E3E70323E1E70423DFE7F0610410B4
:102DF000CC610410013970B5C9B24C00041920230C
:102E0000E55E124B5A5C0179006807F079FE83B2E7
:102E100002060DD402B2403505DA402803D9218BD1
:102E20000139FF392183208B181800B2228470BD2C
:102E30005A1EFF3A93B212B2402DF4DD1100403118
:102E4000F1DA218B0131FF312183ECE7EC630410CF
:102E5000F8B5140030230A0005000E009A43402AFA
:102E600011D032000179006807F04AFE0700002106
:102E70000A203C4301F0B4F9320029792868E3B212
:102E800007F030FEF8BDE3073ED4A30735D463074F
:102E90002CD4230723D4E3061AD4A30611D4630643
:102EA00008D4E411EED00F2332002979286807F006
:102EB00019FEE7E70E2332002979286807F012FE91
:102EC000EFE70D2332002979286807F00BFEE6E7CB
:102ED0000C2332002979286807F004FEDDE70B2374
:102EE00032002979286807F0FDFDD4E70A23320073
:102EF0002979286807F0F6FDCBE709233200297904
:102F0000286807F0EFFDC2E7017908233200006866
:102F100007F0E8FDB9E7C04670B504000E0001F007
:102F200065FA002934D0FA220023920003F050FE03
:102F30000500402298212000FFF78AFF002E1AD0BA
:102F4000402698222179206807F0DAFD064212D047
:102F5000012001F05DF901F049FA00290CD0FA22B4
:102F60000023920003F034FEE368401B8342E8D85C
:102F7000237C002B12D170BDFA21890003F0E6FDFD
:102F8000E368401B9842DCD3237C002BF3D005E0A0
:102F9000FA21890003F0DAFD0500CAE7014805F0CF
:102FA00097F8E8E7A062041070B504000D00CBB2FA
:102FB000160001799922006807F094FD9122217989
:102FC00020682B0A07F08EFD002E00D170BD012174
:102FD0002000FFF7A1FFF9E770B51D4B04008068E2
:102FE0000D00984216D0052100F0E8FB0123A068EF
:102FF000D0228340120693620121002200F000FCDF
:103000000222F9212000FFF723FF0422F9212000EA
:10301000FFF71EFF002D01D0012070BDFB2221799A
:10302000206807F06DFDFA2205002179206807F07D
:1030300067FD2D020543074AA9B29142ECD0207CDE
:103040000028EAD0044805F043F80020E5E7C04630
:10305000FFFFFF7F6AE20000C0620410F8B51700AE
:1030600030230A0004000E009A43402A11D0320097
:103070000179006807F044FD050000210A20BD43E6
:1030800001F0AEF8320021792068EBB207F02AFD9A
:10309000F8BDFB073ED4BB0735D47B072CD43B07D8
:1030A00023D4FB061AD4BB0611D47B0608D4FF1127
:1030B000EED0072332002179206807F013FDE7E7FF
:1030C000062332002179206807F00CFDEFE7052385
:1030D00032002179206807F005FDE6E7042332007D
:1030E0002179206807F0FEFCDDE703233200217917
:1030F000206807F0F7FCD4E702233200217920682A
:1031000007F0F0FCCBE7012332002179206807F0BB
:10311000E9FCC2E7017900233200006807F0E2FC15
:10312000B9E7C046F0B5C6464F1E9846FBB205004B
:10313000160000B50D2B4ED8FC00E01B40002818EF
:1031400029300378052B29D0002A13D12B7C002BA2
:1031500049D1E41B64002C19230001222B331B7876
:1031600030349A4028002178D2B2FFF777FF04BCB0
:103170009046F0BD012AFAD12B7C002B37D1E41BFD
:1031800064002C19230001222B331B7830349A4021
:1031900028002178D2B2FFF75BFEE8E72B7C002BFA
:1031A0001DD1E41B64002C192200343212782979D5
:1031B0002868F3B2353407F095FC330A2278297970
:1031C000286807F08FFC4346002BD0D0012128004F
:1031D000FFF7A2FECBE7084804F07AFFC7E70748ED
:1031E00004F076FFDDE7064804F072FFB1E705481A
:1031F00004F06EFFC3E7C04680620410E86204106A
:103200000463041020630410F0B54646D6464F46CA
:10321000C0B54E1EF3B2040082B00D2B61D8F5008C
:10322000AB1B5B00C31829331A78102A65D0102213
:103230001A70037C002B58D1AB1B5B00E3181900FC
:103240000122283109780A425FD12E239A46AD1B0C
:103250006D006519AA44534621791A78206807F051
:103260004FFC2F239946A9444B4606001A78217932
:10327000206807F045FC2B2398460127A8444346C5
:1032800039001B789940C94333004AB213400240C9
:1032900056B25246217912782068DBB207F022FC40
:1032A0004A46217912782068F3B207F01BFC4346A6
:1032B0001B7820009F402B0031331978FAB2FFF7BA
:1032C000C7FD434608221B783035134321792A78FD
:1032D000206807F007FC02B01CBC90469946A24645
:1032E000F0BD0F4804F0E6FDF5E70E4B0E4A0093E3
:1032F0000E480F4B04F0ECFE9EE7037C002BEAD057
:1033000009490C4804F0E4FEE5E719002D3109787D
:1033100033338A4020001978D2B2FFF79FFE94E73A
:1033200074620410846304103C6304105863041036
:10333000546304104063041070B5F92204000E00B9
:103340000179006807F0DCFB002105000A2000F08D
:1033500047FF02232B43F92221792068DBB207F0D3
:10336000C1FB0422F9212000002E02D0FFF770FDDE
:1033700070BDFFF773FEFBE7F0B557464E46454676
:10338000DE46E0B587B0049310AB1B784F1E99461C
:10339000FBB2040015000D2B00D9C3E00320292641
:1033A0000300B4461340921010402A110392FA0011
:1033B0000292D21B5200A218944466463678AE425E
:1033C00000D1D8E000286ED162461570227C002A18
:1033D00000D0ABE09846052D00D171E0029B0122A0
:1033E000DB1B5B00E3181900283109780A4200D082
:1033F000CCE0029B2179DB1B5B0099462E23A14484
:103400004B441A7820689A4607F07AFB2F234B44E6
:103410001A782179059020689B4607F071FB4B468E
:103420002B331A789446012266461100B140464675
:1034300073106646B3409846C9434646059B49B259
:103440000B40334366462A40B2400840024352B222
:1034500091465246217912782068DBB207F042FB90
:103460004B465A46217912782068DBB207F03AFBC6
:10347000102D6DD0022D6BD0029A039BD61B7600C7
:10348000A61932002B321278DB0030361343217933
:103490003278206807F026FB07B03CBC904699467E
:1034A000A246AB46F0BD28321278D6072CD5052DA2
:1034B0002AD162461570227C002A37D10123984612
:1034C0002D229346029B0121DB1B5B00E3189B44EA
:1034D0005A4612788A4691403333CAB2200019788E
:1034E000FFF7B6FC5B464A461B78002A6CD1524671
:1034F0009A4096212000D2B2FFF7B0FD8022982199
:103500002000FFF7A5FC74E7920701D50A2D4FD0E4
:10351000237C002BC0D0304B8000C2582F4804F0D1
:10352000D7FDB9E72E4804F0C5FCB5E79A009846E8
:103530002C4B8000D358284A82582811800084469A
:103540006646294830580090284804F0C1FD42E7FB
:10355000029BDB1B5B00E3181A0031321178049ADE
:103560002B331B78002A1CD001229A402000D2B2B3
:10357000FFF76EFC80E7237C002B00D18CE7164B15
:103580008000C1581A4804F0A3FD85E719002D31C9
:10359000097833338A4020001978D2B2FFF75EFDF4
:1035A00027E701229A402000D2B2FFF757FD63E7D8
:1035B000029AD21B5200A21829321570227C002ACE
:1035C000B4D10223984609E752469A40962120003A
:1035D000D2B2FFF73DFC91E7D46304108C63041072
:1035E00074620410C4630410E06304105863041090
:1035F00040630410F0B5DE464E4645465746E0B5FA
:1036000087B01D0010AB1B780400984611AB1B78E7
:103610000139CEB2110099461700FFF7F5FD2900D8
:103620002000FFF7F1FD4346002B33D15B4A2B010D
:103630003B43925DDBB22179206807F053FA4A469A
:103640007500EDB26B1CDBB2002A1BD001229A4040
:1036500004212000D2B2FFF7FBFB0122AA40200088
:103660000421D2B2FFF7F4FB4D4B21799A5D20681B
:10367000002307F037FA07B03CBC90469946A246B3
:10368000AB46F0BD01229A4004212000D2B2FFF7E0
:10369000E5FCE2E701235B4243449A46DBB20D2B93
:1036A0005CD853465246DB009B469B1A5B00E318EE
:1036B00029331A78032A55D003221A70237C002B51
:1036C00058D152465B469B1A5B00E3181900012251
:1036D000283109780A4256D152465B469B1A5B0054
:1036E0009A462E23A24453441A78217920689B4697
:1036F00007F006FA2F2353441A78217903902068A3
:10370000049307F0FDF92B21012251440B78059118
:103710009A40039B52B21343024350B25A46217956
:1037200012780390DBB2206807F0DCF96B46049A4C
:103730001B7B12782179206807F0D4F9524605994D
:1037400030320B7812782179206807F0CBF9012309
:10375000002241462000FFF7E5FC67E7114804F02E
:10376000A9FBF4E7237C002BF1D00F490F4804F0AC
:10377000AFFCECE70E4B414600930B4A0D4B0E4855
:1037800004F0A6FC9DE719002D31097833338A40F7
:1037900020001978D2B2FFF761FC9DE7E8630410BE
:1037A000EC630410746204103C6304104063041062
:1037B000B0630410AC63041058630410094A83001A
:1037C00094464022634410B51C68C0006240C02487
:1037D00014408022520113431C60034B9C466044FA
:1037E000416010BD04C0014000400140034BC000D7
:1037F0009C46604443681F201840704700400140C9
:103800000A4B80009C4604236044002901D00C230D
:103810000821002A00D10B00026853400C221A40F4
:1038200080235B01184302607047C04604C001401A
:10383000084B80009C466044002905D080239B01F2
:103840001843402303607047C0239B011843402363
:103850000360F8E704C001400123D0228340120630
:1038600093629361094A8300944640226344196835
:10387000C0004A40C0211140802252011343196008
:10388000034B9C46052360444360704704C00140DD
:1038900000400140F8B5EFF3108772B60E4E336862
:1038A000002BFCD0BFF35F8FCB08C4180725A446BC
:1038B000C45C01230D40AB4018002040234208D1D6
:1038C000624623431370BFF35F8F306087F3108825
:1038D000F8BD100001F080F92C0100D0F8B5CE46FB
:1038E00047468C4680B5EFF3108872B6214D2C68A0
:1038F000002CFCD0BFF35F8F9A422CD8D40807214C
:10390000055D0619012411408C402C421FD007216F
:103910008946063909E0D408055D06194C460F00B2
:103920001440A7403C002F4211D001329342F2D202
:1039300001204042BFF35F8F00220E4B1A6088F3D4
:10394000108800280FDB0CBC90469946F8BD2C432C
:1039500010003470EEE7BFF35F8F00232B6088F315
:103960001088012040426346002BECD0089801F0FB
:1039700033F9C0462C0100D0024B18688007C00FF5
:103980007047C04600C006400021044B044ABFF304
:103990005F8F02C39342FAD17047C046000100D046
:1039A000800100D0044A1078431CDBB2172B00D9E9
:1039B000102313707047C0463C15002000B5054B1E
:1039C00083B00100009318221F230348FFF786FFEE
:1039D00003B000BDF0630410B8020220F8B5040083
:1039E00006200D0001F074FA002845D02B4B2C491D
:1039F000E3185A4253418022D20394465B4213405B
:103A0000284A63441360284A136018008A68904368
:103A1000FBD1224B8021E3185A425341234A5B00D9
:103A200049000620995201F053FA2900C00003F022
:103A30008DF8C30921D1402701222600802562622A
:103A4000A36200232C36AD0135432B60062001F024
:103A50003FFA3900800003F079F86023E26A5340AE
:103A60006E221A4080235B0133431A60104B23639C
:103A700010232B600D3BA364F8BD0E4A934203D97B
:103A800000230D4F0D4AD8E77F2210400130400837
:103A90009F011A003F180300CFE7C0460080FCBF1B
:103AA00000C0004000E0004000F000403409022067
:103AB00001030000FEFF0000C0FF3F00FFFF000009
:103AC00083680B4810B584466144624409011201C1
:103AD0009A18591854684B6801209C4201D802D0AA
:103AE0000020C0B210BD12680B689A42F9D8F7E7FF
:103AF000FFFFFF0F0A4B1968EFF3108072B60A68D8
:103B0000002AFCD0BFF35F8F1B68BFF35F8F0022DA
:103B10001A6080F3108840BF002000217047C04623
:103B2000F8080220F8B557464E464546DE46E0B551
:103B3000434D81468A466A68EFF3108872B613686F
:103B4000002BFCD0BFF35F8F2E68B47B002C3ED0DF
:103B5000670033683F19033FDA195378B373002BBA
:103B600000D1F3730023937053701370A968354A22
:103B70008C464946A21812016244116051465160B8
:103B80003149D36091603268D219937053701370C9
:103B9000737B9B46002B35D022001900B0687368F8
:103BA00098473268002820D05B4658465B005B444B
:103BB000D719033BB870D118D35C002B00D07B70B1
:103BC0005B460C7073735C451DD0002626E06B6865
:103BD000BFF35F8F1C6088F31088012040423CBC1B
:103BE00090469946A246AB46F8BD5B465B005B44F7
:103BF000033BD3189C70D119D25D002A00D05A70B3
:103C00005B460B7074734A465346287D00F078FC7F
:103C1000061EDAD02100286800F0EAFEEB686A6828
:103C20001B19013B1B78BFF35F8F0021116088F3E4
:103C300010880020002ED2D118022043CFE7C046C2
:103C400040150020FFFFFF0FF53A0010F8B557466A
:103C500045464E46DE46E0B599460CAB19780DABAD
:103C60001B78050090469A460768002912D1BE7B52
:103C7000002E45D074003B68A419033C1B195A78E8
:103C80003100BA73002A00D1FA7300229A705A7078
:103C90001A7003E00E004C006418033C2C4B002209
:103CA0009C46AB6861449C464346090161440B60F5
:103CB0004B464B600A9B8B600B9BCB603B681B1990
:103CC0009A705A701A707B7B9B46002B2CD0320066
:103CD0005946B8687B6898473A68002817D05B4611
:103CE00058465B005B441419033BA070D118D35CA9
:103CF000002B00D063705B460E707B73B34514D00D
:103D000030003CBC90469946A246AB46F8BD5B46A7
:103D10005B005B44033BD3189E701119125D002AAF
:103D200000D05A705B460B707E7342464B46287D2E
:103D300000F0E6FB041E06D05346002B03D13100F1
:103D4000286800F055FE0E9B002BD9D01C70D7E7D9
:103D5000FFFFFF0FF0B5DE464E46574645460023AF
:103D6000E0B58DB00A936B4B8200D3580B90994607
:103D700000239B464B46079300F038FB079C060048
:103D80000F006268EFF3108572B61368002BFCD049
:103D900022000794BFF35F8F2468637B9946002B52
:103DA00067D092685C4B90464B441B019844434655
:103DB0001A685B6810001900801BB94100295FDD9B
:103DC0000B9800F09DFB00230026984600279A469A
:103DD000079C6368BFF35F8F5A461A6085F31088AB
:103DE0005346002B08D10028C6D10DB03CBC9046EC
:103DF0009946A246AB46F0BD0A9B414618024B4687
:103E00001843D047089009916268EFF3108572B6A5
:103E10001368002BFCD00794BFF35F8F0899099AB1
:103E2000002A48DB114303D0079B1B69002B5DD19F
:103E3000079B1B68DA7B002A07D051008A18196893
:103E40008C4649466244033A51704A46DA734B46FF
:103E5000079A013BD168CA5C0132CA545B46079A93
:103E600013615368BFF35F8F5A461A6085F3108859
:103E700082E700230026984600279A460020A7E7FD
:103E8000002901D100289BD10021200000F012FD63
:103E900043461E685F689B68079A9A464346DB68FC
:103EA0009846D3684B44013B1B780A931B0203439B
:103EB000136100208CE72369002BB9D033003C004C
:103EC0005B1A94411A002300A74219D89F421BD0C5
:103ED00059460491012103914946029141460191BD
:103EE000514607980091FFF7B1FEB7E700F07EFA60
:103EF000089A099B06000F0092197B419942E5D967
:103F000001225242D317E3E79642E1D901225242FD
:103F1000D317DDE7E0080220FFFFFF0F10B5124CBA
:103F20006368002B04D00A21104800F07BFB10BD11
:103F300023000F4A1021206800F0DAFB032000F074
:103F400049FA032000F04EFB03200A4900F092FAE0
:103F5000FFF728FD084B9C46032360442375074B5D
:103F600080006060DC60DEE740150020F808022079
:103F7000C13A0010553D001040000034E008022016
:103F80000048704740150020F0B557464546DE46CC
:103F90004E46E0B585B0019310AB1B780027039324
:103FA000002380469A46009243465A68EFF31089F0
:103FB00072B61368002BFCD0BFF35F8F43461D68B9
:103FC000AC7B002C4FD066002B683619033E9B1942
:103FD0005A78AA73002A00D1EA7342469F705F7034
:103FE0001F709268524B94460099019AE3181B0186
:103FF000634419605A600E9A9A600F9ADA602B68CF
:104000009B199F705F701F706B7B9B46002B46D087
:1040100022001900A8686B6898472A68002831D0E8
:104020005B4658465B005B449619033BB070D11861
:10403000D35C002B00D073705B460C706B735C45D7
:104040002ED04346DB681B19013B187843465B685A
:10405000BFF35F8F1F6089F310885346002B2ED16A
:104060000002204307E05B68BFF35F8F1C6089F3A9
:1040700010880120404205B03CBC90469946A246BB
:10408000AB46F0BD5B465B005B44033BD3189C70C2
:104090009119925D002A00D05A705B460B706C73C8
:1040A0004346187D009A019B00F02AFA82460028B8
:1040B000C7D043462100186800F09AFCC1E7039B73
:1040C000002B32D00E9B00200F999847030004006C
:1040D0000D000B4329D000290DDA00980199020048
:1040E0000B00121BAB41994215D81AD000920193D4
:1040F000039B9A4658E700F079F902000B00A418D8
:104100005D412000290000900191AB4203D8EFD11E
:1041100000998A42ECD901235B42DC170093019499
:10412000E6E700999142E1D9F5E70020A3E7C04610
:10413000FFFFFF0FF0B504000D0006267642F717CB
:10414000C64636196F4100B58F4213D810D000F023
:104150004DF932003B00121A8B41002B14DC002B6E
:1041600037D02900200000F075F904BC9046F0BD5E
:104170008642ECD90026002700F038F932003B00D7
:10418000121A8B41002BEADD30003900FFF7CAFC20
:104190000028E6DB00239846BC460F4A0F4F7B6A97
:1041A0009C4504D8B96A8E42DBD99C45D9D11168A7
:1041B000EFF3108072B60B68002BFCD0BFF35F8F5B
:1041C0001368BFF35F8F4146196080F3108820BFEA
:1041D000E5E7002AC5D0D7E7F808022000400540EF
:1041E00070B504000D0000F001F902000B00200082
:1041F0002900801859418B4205D802D0FFF79AFF59
:1042000070BD8242FAD901204042C117F6E7C0468C
:1042100070B5060000F0EAF8FA2204000D00002351
:1042200030000021920003F0CBFB001969418D4260
:1042300005D802D0FFF77EFF70BD8442FAD9012075
:104240004042C117F6E7C046F8B5CE46474680B5AE
:1042500006000C00FFF766FC00280CDC2D4B00204C
:10426000596A8C4203D89B6A0130B34245D30CBCD7
:1042700090469946F8BD20BF274D6A68EFF3108736
:1042800072B61368002BFCD0BFF35F8F2B68C1B2EE
:104290009C465B7B8B4235D0FF2303405A009146FE
:1042A00062461268994490464A464244033A9278DC
:1042B000002A1DD0EA68000A90464344013B1B785F
:1042C000C0B2834221D06B68BFF35F8F00221A60B7
:1042D00087F310880F4A0020536A9C42C7D8926A1D
:1042E0000130B242C3D2E41A601E8441E0B2BEE79C
:1042F0002B699842E7D12A61E5E7641A601E844180
:10430000E0B2B4E7FF230340D4E7604600F070FB5F
:10431000D9E7C0460040054040150020F0B5D6461C
:104320004F464646C0B5EFF305833F2213401800C1
:104330001038EFF3108C72B6204D2A68002AFCD09A
:10434000BFF35F8F0122110081401D4C88466163DD
:104350001C4917000E788A463100C1400F400A42BE
:1043600015D019498200646A51588C4219D3174BF1
:10437000D25843469E4353461E70BFF35F8F0023BF
:104380002B608CF31088002A06D0904704E0BFF31E
:104390005F8F2F608CF310881CBC90469946A24614
:1043A000F0BD0B4A9B00904643441A681A60BFF365
:1043B0005F8F00232B608CF31088EDE7280100D07D
:1043C000004005403109022004090220A43F0020DA
:1043D000D03F054010B50100024A0348FFF75AFAE2
:1043E00010BDC046186404102D090220034B596A01
:1043F0000A00986A596A8A42FAD17047004005401B
:1044000070B504000D00124A536A1900966A536A87
:104410008B42FAD13000190024184D41AB4211D81B
:104420000ED02B000A494A6A9A42FCD307D1084AA7
:1044300002E0516A994202D1916AA142F9D370BD5A
:10444000A642EED9012301246442E5175B42E9E765
:1044500000400540064A536A9942FCD807D1044BF4
:1044600002E05A6A914202D19A6A8242F9D37047B5
:104470000040054070B504000D00EFF3108672B6E1
:104480001A4A1368002BFCD0BFF35F8F002D1BD09E
:10449000200000F03DFD164981420AD0200000F0C6
:1044A0003FFD0121200000F019FD0123A340114A26
:1044B0001360114BA400E550BFF35F8F00220B4B3C
:1044C0001A6086F3108870BD0B4BA200D5500122F4
:1044D000A2400A4920000B7893430B70044900F076
:1044E00049FD0021200000F0F9FCE5E7280100D09B
:1044F0001D43001038600540A43F00203109022010
:10450000F0B54F46D6464646C0B50700304C616A06
:104510000D00A66A616AA942FAD18B4208D805D07B
:1045200001201CBC90469946A246F0BDB242F7D984
:10453000EFF3108972B6274801680029FCD0BFF359
:104540005F8F01252449BD408C460978204C0E0020
:104550002E438846F1B28A46614650460870391D9E
:104560001E48890065630A51B9000B50216A00207A
:10457000294219D0616A0800A66A616A8142FAD1AB
:104580008B4219D801D1B24216D8C2451DD0104B6A
:104590001F201D625D6301230740BB40104A1E3887
:1045A0001360634642461A70BFF35F8F0022094BC7
:1045B0001A6089F31088B4E70020BFF35F8F0022F0
:1045C000044B1A6089F31088ABE70120ECE7C04682
:1045D00000400540280100D03109022004090220D2
:1045E00080E200E010B5EFF3108472B60A490B6860
:1045F000002BFCD0BFF35F8F01238340074A08489C
:10460000136202789A430270BFF35F8F00230B603E
:1046100084F3108810BDC046280100D0004005403A
:1046200031090220024B9C466144890001607047B9
:104630004000003410B50400FFF7B4F90100200079
:10464000FFF7F0FFFF23A380BFF35F8F10BDC046CD
:1046500010B50400FFF7A6F901002000FFF7E2FF04
:1046600001235B42A380BFF35F8F10BD10B5040030
:104670000120FFF7A3F9034BC3189B002360BFF38E
:104680005F8F10BD4000003470B505000E001400AF
:10469000002924D0002A24D080686B6898472968B4
:1046A00000280ED063001B197200033B9219CB182F
:1046B000033A9E7088188A5C002A14D10470300076
:1046C0000EE073009B196200033B1219CB18033AEA
:1046D0009C7088188A5C002A00D05A7006702000EE
:1046E00070BD0800FCE75A7004703000F8E7C0465F
:1046F00030B583600023CCB243730133047342604E
:104700008373C4730D000068012C06D9421C013369
:10471000DBB2137003329C42F9D1FF2129404B00D8
:104720005918002340180338437030BDF8B5CE4601
:10473000474606000C0080B5002907D04D000368ED
:104740006D18033D5A195778002F04D120000CBC76
:1047500090469946F8BD7900C91903398846434403
:104760005978894600215970517073683A002100C8
:10477000806898473368002814D042469A1894708D
:1047800059195B5D002B00D053700F70270049460C
:104790003000FFF7CBFF390002003000FFF774FF55
:1047A0000400D3E7424641465D19AF709A185B5C3E
:1047B000002B00D06B701470E9E7C046F0B5574687
:1047C0004546DE464E46E0B50D006B0001685B19BC
:1047D000DF1E0400C85D83B00192CA1900284CD0C6
:1047E00043001B18033BCB185E78B446002E16D14D
:1047F000019E002E3ED0E67B002E04D073009B1954
:10480000CB18033B5D70E57300282FD10023537054
:1048100003B03CBC90469946A246AB46F0BD720040
:104820006244033A89184A78904600224A709146B9
:104830005A70010032002000FFF726FF43468246EF
:10484000002B07D05B0021684344033BCB185A7808
:10485000002A16D1424651462000FFF715FF216875
:10486000019BCA19002BC6D10028CFD043001B18CA
:10487000033BCB1800219970C8E7019B002BBAD1EC
:10488000C4E7500080180338091848788346484622
:104890004870587041462000FFF7F6FE59468046A2
:1048A0002000FFF743FF414602002000FFF7ECFE27
:1048B0008046CFE7F0B54E464546DE465746E0B562
:1048C000467B040075000068AD19033D83B001917B
:1048D000415D421900294ED04B005B18033BC318C1
:1048E0005F78BC46002F18D1019D002D40D0E57B9C
:1048F000002D04D06B005B19C318033B5E70E67398
:10490000002931D1002330005370617303B03CBCE7
:1049100090469946A246AB46F0BD7A006244033AFF
:104920008018427893460022427091465A702000C7
:104930003A00FFF7A9FE5B468046002B07D05B00DC
:1049400021685B44033BCB185A78002A17D15A469A
:1049500041462000FFF798FE019B010020684219A4
:10496000002BC4D10029CDD04B005B18033BC318EA
:1049700000209870C6E7019B002BB8D1C2E7500019
:10498000801803380918487882464846487058709D
:1049900059462000FFF778FE53468346002B07D088
:1049A0005B0021685344033BCB185A78002A06D198
:1049B000594652462000FFF767FE8346C7E750007E
:1049C00080180338091848464F7848705870514687
:1049D0002000FFF759FE390081462000FFF7A6FEB0
:1049E000494602002000FFF74FFE8246E0E7C0463E
:1049F00070B5040000292CD0437B8B422ED0056873
:104A000048004018033828188278002A21D0530023
:104A10009B18033BEA5CEE188A4202D11BE0002A95
:104A200008D053009B18033BEB185A788A42F6D102
:104A300042785A7000230122837043702000FFF7F0
:104A4000BDFE617B02002000FFF71EFE60730120A7
:104A500000E0002070BD43783370EBE701221900BD
:104A6000FFF7ACFE60730120F4E7C0462F4B304ADD
:104A700070B51A602F4A304B30491A6010008B68AD
:104A80009843FBD12E4C2F4B9C4209D2013B1D1B5E
:104A9000AD080135AD002D1908CC9847AC42FBD1CB
:104AA00000F0B8F8284A244B1A60244A9368DB01C6
:104AB0008033FBD14022254B254C9A675A671A67F1
:104AC000DA66244B9C4214D2013B1D1BED080135D4
:104AD000ED002D1904E00834FFF7BAFDAC4208D010
:104AE00063792000002BF6D10834FFF7A3FDAC4218
:104AF000F6D1194C194DA168C022280003F0B4F872
:104B0000A560FEF741FF00F06DFBFFF707FA144CBC
:104B1000144B9C4209D2013B1D1BAD080135AD0071
:104B20002D1908CC9847A542FBD170BD00E000408C
:104B3000BFCDFBFEFE7F3C0000F0004000C0004007
:104B4000E8200020F8200020FFFFFF0100F00140D6
:104B5000E0200020E820002000ED00E00000002020
:104B6000F82000201C21002000BEFDE7094A0300B8
:104B70001068002805D00849C3188B4207D8136075
:104B8000704706480449C31810608B42F7D90120CA
:104B90004042F5E74C04022000000420000C0220F3
:104BA00000BEFDE710B50C0082B01900002A09D044
:104BB000064B0192009302002300054801F030FFEC
:104BC00000BEFDE7034B1A00F3E7C0463C64041047
:104BD0004C640410A86304100FB400B5084883B0F7
:104BE00003F068F9049B002B07D005A91800019178
:104BF00001F036FF034803F05DF900BEFDE7C04653
:104C00007C640410C460041010B50148FFF7E4FF91
:104C10008C64041030B50C2083B000F051FBFEF71B
:104C2000ABFE00280ED0944B944A1A605A609A60EA
:104C3000DA601A615A619A61DA611A62904A5A62BC
:104C400003B030BD8F4CA06700F08EFB01228E4B6D
:104C50001A60636C012BFCD103228C4B1A60894AC9
:104C6000936B012BFCD102240121894A8948053329
:104C7000009400F0D3FA0523874A01218748009465
:104C800000F0CCFA864B5A68FF2A02D880225200E4
:104C90005A608022784C7D4B21691201804D1A6048
:104CA000002905D0606901F051FF01300138FDD1C4
:104CB000E0217B4B02201A681140802252012A43D6
:104CC00011601968484003210140116004219A686D
:104CD0001142FCD08022802192012A4309011160F7
:104CE000802252005A606F4B23616F4B5968FF2935
:104CF00000D85A6003226C48634B01211A600200FD
:104D000093681942FCD0E02513681D4080235B01A5
:104D100003431D6012684A400321114019600221BB
:104D2000614A93681942FCD0802380219B01034390
:104D30000901196080215D4B4900516063615C4B42
:104D40005A68FF2A00D8596080225A4BE169120143
:104D5000574D1A60002905D0606901F0F7FE013057
:104D60000138FDD1E02252490B681A4080235B01D3
:104D70002B431A60802380229B012B4312011A606F
:104D800080223E4B52004A60E3614B4B5968FF2939
:104D900000D85A608022494B216A1201464D1A60A0
:104DA000002905D0606901F0D1FE01300138FDD144
:104DB000E02241490B681A4080235B012B431A60B3
:104DC000802380229B012B4312011A6080238022C2
:104DD0005B004B60294BD2022362394B59689142E8
:104DE00000D25A608022374B616A1201344D1A603A
:104DF000002905D0606901F0A9FE01300138FDD11C
:104E0000E0222F490B681A4080235B012B431A6074
:104E1000802380229B012B4312011A608023DB0236
:104E20004B60174B6362284B5A68FF2A02D88022D6
:104E300052005A608022254BA1691201224D1A604E
:104E4000002905D0606901F081FE01300138FDD1F3
:104E5000E0221D490B681A4080235B012B431A6036
:104E6000802380229B012B4312011A6080235B0068
:104E70004B600E4BA361E3E6BC020220006CDC0237
:104E80001BB70000008000403CB0004030B0004044
:104E9000002F68590080024000389C1C00C002406E
:104EA00030800040001BB7003C8000404059730731
:104EB0005480004054B000406080004060B000402A
:104EC0006C8000406CB000404880004048B000401A
:104ED000014B8000C0587047BC0202200123834070
:104EE000002904D0034A1360034A13607047034A41
:104EF0001360FBE780E200E000E100E080E100E019
:104F000001238340014A13607047C04600E200E07D
:104F1000024B10309B688000C058704700ED00E0E5
:104F200070B50D00EFF3108672B60F4A1368002BB0
:104F3000FCD0BFF35F8F0D4B10309B6884001B5972
:104F40000B4A934203D09D4201D0FFF75DFE074B11
:104F50009B681D51BFF35F8FBFF35F8F0022024B31
:104F60001A6086F3108870BD240100D000ED00E0C7
:104F7000CD010010F0B5DE4657464E464546E0B539
:104F80000C0083B0EFF3108A72B65B4A1368002BF3
:104F9000FCD0BFF35F8F1022914681444A46574BA5
:104FA00096009B689D59564B98469D4205D0A54258
:104FB00016D0544FEB1B2F2B14D9504B9B689D518F
:104FC000BFF35F8FBFF35F8F00224B4B1A608AF3F2
:104FD000108803B03CBC90469946A246AB46F0BD53
:104FE0001D00EAE7012383409B465A46464B1B6857
:104FF0001A4000925A46454B1A60BFF35F8FFBF789
:1050000032F90190002803D0814501D0FFF7FCFD63
:1050100001232A009A431300DB1B5B414249594399
:10502000090D93689C4208D15BE043001B189B006C
:10503000FB189868A04211D01A00062010560028CC
:10504000F3DA009B002B05D05A46314B1A602E4BE9
:105050001A60B2E75A462D4B1A60AEE70620185682
:10506000002822DB4200111889007C188846A168BC
:105070009960E179D971062161569971A1797F29E9
:105080001FD8A488F91A6405241544440919E0249A
:105090000905490D24022143998012181D4B9200E5
:1050A000BF181A781870BA71CBE7019800280BD195
:1050B000FF30907118489080164A107811709871DE
:1050C000BFE7BD210902E7E7144A1549D21A083A99
:1050D0005002400D01439980124952080A43DA8078
:1050E000AFE70620105613000028BBDA019A002A09
:1050F000EAD14546E0E7C046240100D000ED00E0DB
:10510000CD0100106815002000E100E080E100E022
:1051100080E200E02E09022000BDFFFFA215002062
:1051200000F0FFFF00F8FFFFAAAA0000F8B5012574
:1051300004000543FBF797F80200EFF3108672B600
:1051400021490B68002BFCD0BFF35F8F1F49200063
:10515000401A4041224B43431B0D1D489200876873
:105160005BB2BF58AF421CD006228A569A421CD06E
:1051700012228A569A4222D01E228A569A4220D061
:105180002A228A5603209A4210D0124A11781370AC
:10519000A171BFF35F8F00220B4B1A6086F310885A
:1051A000F8BD81680C488850EFE7002042001218D3
:1051B00092008918FF228A71084A8A80E5E7012057
:1051C000F4E70220F2E7C046240100D06815002071
:1051D00000ED00E02E090220CD01001000BDFFFF10
:1051E000AAAA0000F0B500220324FF278026200091
:1051F0003D00094B11009C461040C0008540A14372
:1052000061440B680132AB43350085402B430B6092
:10521000202AECD1F0BDC04600E400E0F8B504005F
:105220000C2017001D000E0001F090FC4101091A2E
:105230008B01591AC90009188901380001F086FC50
:10524000069A2B04120313432268002A21DB184A12
:10525000A21851424A41802149018C4652420A40DB
:10526000144962440A6014490A60144917008D68A1
:10527000AF43FBD1C021221D8901114321222660A9
:10528000A0600A602268002AFCDAE36008230B6051
:10529000F8BD3F2221680A40B242D8D1A268120567
:1052A000120D8242D3D1E268002BD0D1F0E7C04684
:1052B0000040FDBF00E0004000F0004000C00040A2
:1052C0008023024A9B000343D3627047008005405D
:1052D00010B5140080221A4BD2051A6000282CD079
:1052E0000123184A1843184BDA61184A42401A62DF
:1052F000596298628022124BD2051A601449154AED
:105300001160E022D2041A60002C12D080236201C6
:10531000121B9200121912015B049A4200D30E4A2A
:105320000E4B1A60084B5A6080220D4BD2051A6052
:1053300010BD0C4A094B1A60F4E7034BD861D9E75A
:1053400000B00540D3C007B0008005402D3FF84FA6
:10535000FCFF010008200140FFFFFF006808022059
:1053600000A00540A0860100AA23064A1B01136085
:105370002F230549D360054B19605368002BFCDAD5
:105380007047C0460040024000B0FA000060024092
:105390009A4200D2885470477047C046F8B55746C5
:1053A0004E46DE464546E0B51F000A9B05009B467B
:1053B0000D9B0E00914692469B0718D10B9B0C9AB1
:1053C000934214D213000B9AB8469B1A4B444C4696
:1053D0000F0006001D002200434601343900202042
:1053E000B047AC42F7D1AA4635003E0047460B9B7A
:1053F000002B38D09A441C00D04653461A1B5B46FB
:10540000013C185D31003B00A847002CF5D10D9BF5
:105410009B0721D543464A469C1A0C9BA3421BD9A5
:105420003A009A464F469146E2194B4631002020F9
:105430000134A8475445F7D343460C99DB1B01338D
:10544000B9460022994203D343464A1E4A44D21A1F
:10545000434690460133984440463CBC90469946AA
:10546000A246AB46F8BDD046D1E7C046F0B54F46A0
:105470004646D646C0B584B098460EAB1B78129F00
:10548000994694460D9C109B119EBA0725D4002E78
:1054900069D19C4200D3C2E001223A4092461F2CBF
:1054A00000D9BBE00C9A551E302201E0202C03D01D
:1054B00001342A55A342F9D85246002A0DD0B442ED
:1054C0000BD21F2C62D80C9A551E302201E0202CE2
:1054D0005CD001342A55B442F9D1FA0635D57A05A3
:1054E0005DD4002C57D10F9B102B00D17CE00F9B7B
:1054F000022B00D18DE030230C9A012413704B460F
:10550000002B27D02D230C9A135501340C9B624697
:1055100000930397434602960194FFF73FFF04B0C0
:105520001CBC90469946A246F0BDBB0663D4202C15
:10553000ECD00C9B1A19013478231370202CE5D081
:1055400030220C9B1B191A700134202CDED04B46E4
:10555000002BD7D17B0735D43B07D7D520230C9A16
:1055600013550134D2E7012215003D40AA463A42C4
:1055700020D04A46002A2AD10C323A4227D19C42F6
:105580009DD21F2C00D88DE7202E19D92024FA0691
:10559000BCD57A0503D4A3421BD0A64219D00F9BD9
:1055A000102BC2D0022BC9D1202CAFD00C9B1B19C1
:1055B000013440E09C4200D38FE71F2C00D871E7F4
:1055C00020248AE72B230C9A135501349EE7013ED1
:1055D000D5E7631E012C00D185E70F9A102A20D051
:1055E000022A25D01C00ABE7BB060DD478230C9A09
:1055F00001241370A4E7202C00D187E758220C9BCC
:105600001B191A70013499E758230C9A012413705E
:1056100096E70C9A60330124137091E7202400264A
:105620005BE7023CBA06E9D40C9A12191C0083E726
:105630000C9A9246534462221A707FE710B50028F4
:1056400000D110BD02F028FCFBE7C0460B0010B5EE
:10565000002802D049681B68984710BDF0B5DE46A7
:10566000574645464E46E0B59BB09B46249B0A9064
:105670009846259B0B910C924046424619009A464B
:1056800001F03BFD002800D0E8E0012240465146F1
:105690007F4B524201F02CFD002800D0DEE00122B9
:1056A000404651467B4B524201F00CFD002800D091
:1056B000D4E0002200234046514601F003FD0028BB
:1056C00000D0CAE15346C14609938023289ADB00E3
:1056D0001A400E92289A1A4201D1062326934C466C
:1056E000099B234300D0D9E0289B002600271B05F7
:1056F00000D4AEE100230D93269B19000D9B994227
:1057000000DCB0E1C81A431E26938023289ADB00F0
:105710001A430023002528920D93279B0024AB42B7
:1057200000D95C1B0223289A1A400E92289A134231
:1057300003D06B426B415B421C400D9B002B07D09A
:105740004846099932003B0001F053FC814609911B
:10575000002200234046514601F0B4FC002805D049
:10576000802000068446099961440991289A4A4B91
:105770000A9E13404A460493269B0B990293099B69
:1057800003940092019330005B460C9A884600F027
:10579000A1F90400002D72D0289B220098061F2337
:1057A000C017984341465B466530B0470D9B671C68
:1057B000DA179C18DB0F98466B1E9946002554405B
:1057C00001E0202D13D00AAA94461F232000634431
:1057D0000A2101355E1901F0B9F93031317020002C
:1057E0000A2101F0B3F926000400092EE9D80523A7
:1057F00006934B460593002304930A3303934346D1
:105800003A000A9E0B9F029312AB009339005B464D
:1058100030000195FFF72AFE0E9B0400002B2ED0CE
:105820000C9B279AC51AAA4229D93C008146984662
:105830001700434621005A1920205B460135B04726
:10584000AF42F6D84C460C992798631A01330022D0
:10585000984200D30AE10134141910E0289B424613
:105860000493279B0B990393269B0A980293534614
:10587000009201935B460C9A00F02CF90400200082
:105880001BB03CBC90469946A246AB46F0BDC04614
:10589000FFFFEF7FFFFFEFFFFFF7FFFF764B099D55
:1058A0009C466800400D604401F03AFC734A744B1A
:1058B00001F0BDFB734A744B01F092FB2B03734A5A
:1058C0001B0B1A4306000F00714B110048460022C3
:1058D000099501F07CFB6F4A6F4B01F0A8FB0200B9
:1058E0000B003000390001F07BFB01F031FC0D9022
:1058F00001F016FC694A6A4B04000D0001F097FBA9
:105900000022684B01F06CFB01F022FC664A0600A5
:10591000664B2000290001F08AFB040030000D00D6
:105920000F9601F0FDFB624A624B01F080FB020022
:105930000B002000290001F04AFB02000B000600CA
:105940000F0001F074FB320004000D003B0030003A
:10595000390001F045FB002210901191564B2000B8
:10596000290001F046FB0022544B01F039FB0200F4
:105970000B002000290001F03CFB0022504B01F0FD
:105980002FFB02000B002000290001F032FB0D006C
:10599000802132003B000400C905002001F017FB04
:1059A00002000B002000290001F01AFB02000B008E
:1059B0001098119901F01DFB0022344B01F010FBEF
:1059C000404A0F9B9446634400221B0501F02FFBC5
:1059D00006000F0002000B004846099901F072FB17
:1059E00000280AD00D9B3000013B39000D930022A6
:1059F000324B01F0FEFA06000F00C6250D99330068
:105A000063318D42AD4128996D420435090500D4BA
:105A100083E63B4300D16FE6099C484621002A4AB1
:105A20002A4B01F05DFB002808D0002248462100E7
:105A3000274B01F047FB002800D05DE6269B002B9A
:105A400000D16AE60E9B5A1E9341269AD31A2693DA
:105A500063E6002304250D935FE680231B06534471
:105A6000C146099331E6002326934EE60A00844698
:105A7000013A6244121BEEE601FCFFFFFB799F50E6
:105A80001344D33FB3C8608B288AC63F0000F03F61
:105A90000000F83F61436F63A787D23F71A3790984
:105AA0004F930A400000E03F1655B5BBB16B024072
:105AB000EF39FAFE422EE63F00002C400000244061
:105AC00000001840FF0300002D431CEBE2361A3F94
:105AD00080842E41F0B54E46DE4657464546E0B539
