:020000041000EA
:1000000000B5324B212058609868022188439860DF
:10001000D860186158612E4B002199600221596106
:100020000121F02299502B49196001219960352056
:1000300000F044F80222904214D00621196600F024
:1000400034F8196E01211966002018661A6600F04E
:100050002CF8196E196E196E052000F02FF8012189
:100060000842F9D1002199601B49196000215960AB
:100070001A491B48016001219960EB211966A021F2
:10008000196600F012F800219960164914480160C1
:100090000121996001BC002800D000471248134993
:1000A000086003C880F30888084703B5996A0420EC
:1000B0000142FBD001200142F8D103BD02B5186610
:1000C0001866FFF7F2FF186E186E02BD00000240BE
:1000D000000000180000070000035F00212200005C
:1000E000F4000018222000A00001001008ED00E03C
:1000F00000000000000000000000000074B24E7A12
:1001000000200420F7010010C3010010C5010010F9
:10011000C1010010C1010010C1010010C101001097
:10012000C1010010C1010010C1010010C701001081
:10013000C1010010C1010010C9010010CB01001065
:10014000CD010010CD010010CD010010CD01001037
:10015000CD010010CD010010CD010010CD01001027
:10016000CD010010CD010010CD010010CD01001017
:10017000CD010010CD010010CD010010CD01001007
:10018000CD010010CD010010CD010010CD010010F7
:10019000CD010010CD010010CD010010CD010010E7
:1001A000CD010010CD010010CD010010CD010010D7
:1001B000CD010010CD010010CD010010CD010010C7
:1001C00000BE00BE00BE00BE00BE00BE00F04BF888
:1001D000103800BEF2EB88712C1205105412051075
:1001E0003402001090A31AE700202149086006C8D5
:1001F00081F3088810471F48006800282FD10DA4FC
:100200000ECC002902D000F012F8F9E71A491B4A77
:10021000002000E001C19142FCD1194988471949E9
:1002200088471949884700BEFDE701C901C29A42C3
:10023000FBD3704754120510C00000201C21002081
:10024000B03205100000042000000420B032051078
:1002500000100420001004200000000070470B482C
:1002600006F068FC0047EFF30580C0B2704700005D
:1002700008ED00E0000000D020210020F80B022053
:10028000014B001065290010354C00105756000036
:1002900006005250ABB36053B867041006005250CA
:1002A000861C0302C8670410060052505422A29D07
:1002B000DC67041005005250DE65F468B0320510AA
:1002C000F8B5C0460448054B10B5834203D0044B33
:1002D000002B00D0984710BD1C2100201C210020BD
:1002E0000000000006480749091A8B10C90FC918F9
:1002F00010B5491003D0044B002B00D0984710BD17
:100300001C2100201C2100200000000010B5074C1B
:100310002378002B09D1FFF7D5FF054B002B02D026
:10032000044800E000BF0123237010BD78220020A4
:1003300000000000E85E0410054B10B5002B03D050
:100340000449054800E000BFFFF7CCFF10BDC046E0
:10035000000000007C220020E85E041008007047C6
:10036000044B10B518680833984201D007F0D4FC4C
:1003700010BDC046443B0020044B10B5186808333C
:10038000984201D007F0C8FC10BDC046983B002041
:10039000044B10B518680833984201D007F0BCFC34
:1003A00010BDC0465C3B0020044B10B518680833F4
:1003B000984201D007F0B0FC10BDC0462C3B002095
:1003C000044B10B518680833984201D007F0A4FC1C
:1003D00010BDC046743B0020044B10B518680833AC
:1003E000984201D007F098FC10BDC046F83B0020B1
:1003F000044B10B518680833984201D007F08CFC04
:1004000010BDC046E03B0020044B10B5186808330F
:10041000984201D007F080FC10BDC046103C00207F
:10042000044B10B518680833984201D007F074FCEB
:1004300010BDC046C83B0020044B10B518680833F7
:10044000984201D007F068FC10BDC046143B002064
:10045000044B10B518680833984201D007F05CFCD3
:1004600010BDC046FC3A0020044B10B51868083394
:10047000984201D007F050FC10BDC046B03B0020B0
:10048000F0B5C646561A04000D00170000B5B310AB
:10049000002E14DB0020002B02D0300007F034FCCB
:1004A000831998462060A360AF4203D03200290030
:1004B00007F024FC4346636004BC9046F0BD01484D
:1004C0001EF0C6FCE85E041070B50D4E3468756809
:1004D000AC420AD023002068083398420BD018346D
:1004E00007F01AFCA542F5D13568002D02D028008E
:1004F00007F012FC70BD1834A542EBD1F4E7C046FA
:100500008C3B0020F0B50700083704000E0083B0D4
:100510000760002925D008003BF0E8F9050003003A
:1005200001900F280CD8012807D1327822720022BE
:1005300020006360FA5403B0F0BD0028F7D008E053
:100540000022200001A92AF019FB0700019B20606E
:10055000A36038002A00310007F0D0FB019B276818
:10056000E5E701481EF05CFC1C5F0410F0B547464F
:10057000CE4680B5571A9046FA1093009B180C008F
:1005800019015B1819025B1819045B185B009B18B2
:10059000264A060083B0934245D80025002B03D09D
:1005A000380007F0B1FB0500EF193560B760A045D2
:1005B0000BD12AE0012F33D11B782B720023183482
:1005C0006F60C3551835A0451FD028002368083038
:1005D000994667682860002B1DD001970F2FE9D935
:1005E0000022280001A92AF0C9FA019B2860AB600B
:1005F0003A00494607F082FB0023019F286818341F
:100600006F60C3551835A045DFD1756003B00CBCD1
:1006100090469946F0BD002FD0D005481EF000FC52
:10062000002FCBD0E4E703481EF012FC55555505CA
:100630001C5F0410E85E0410F0B5454657464E4670
:10064000DE46E0B5150001220C001100D84F06006F
:100650003B78ADB01940BFF35B8F88461A4200D19A
:100660007EE101221100D34B99461B78BFF35B8FCB
:10067000194088461A4200D158E101221100CE4BA0
:1006800099461B78BFF35B8F194088461A4200D108
:1006900030E101221100C94F3B78BFF35B8F194055
:1006A00088461A4200D1AFE001221100C44F3B78C6
:1006B000BFF35B8F194088461A4200D1C6E1012280
:1006C0001100C04F3B78BFF35B8F194088461A4238
:1006D00000D1A1E1072C00D892E0002E00D1E0E18A
:1006E000B94B04AE1F685C680296002F00D168E227
:1006F00020940F2C00D997E2012C00D0EFE23B7838
:1007000002AA13723300002203941A55AF4B02A8B9
:1007100006CB2AF06FFCAE4B039A9B1A032B00D832
:10072000EDE20422AB4902A82AF064FC07000AAB00
:1007300008939846036808370400BB4200D1A6E23C
:10074000089383680A93636808A809930023636089
:100750002372A14B276006CB2AF04CFC070010AB9C
:100760000E939946036808370400BB4200D188E223
:100770000E9383681093636898480F930023276053
:10078000636023720F9A0E9929F06AFD03680400D2
:100790000C3B1B68C318DF6F002F00D1ADE23B7F1D
:1007A000002B00D123E22723F95C200029F0F8FC7C
:1007B00029F066FC0E98484501D007F0ADFA08987C
:1007C000404501D007F0A8FA0298B04201D007F0E6
:1007D000A3FA834B1C68072C12D9824B1968824CF0
:1007E0000B7A0A79200009780AF00EFF002D00D05C
:1007F00053E12DB03CBC90469946A246AB46F0BDB5
:100800007A4BA4001B599F4638000CF049F9002888
:1008100000D149E722AA20929146754A4146229288
:10082000042220AB2192197328A92691714927929D
:1008300028914146203299546F4B30209A461960D6
:100840005960996007F060FA53468046186030237B
:10085000524643449360009343460830219A1860FF
:10086000209B93460193002B00D12EE21A920F2A6F
:1008700000D9E8E1012A00D03BE24246019B1B7807
:1008800013725A4643465A600023835440464246F8
:100890004346203027999061269A8B46183301925F
:1008A000002A00D10BE21A910F2900D9F5E10129A4
:1008B00000D01AE2019B41461A782023CA545A46B6
:1008C0004346DA61002383545346009A38005A6045
:1008D0000CF002F9494838F03BF9269828AB9842C9
:1008E00001D007F019FA2098484500D1DCE607F05E
:1008F00013FAD9E648460CF0D3F8002800D1C8E630
:10090000354B1A009C4608321A603D4B83CB83C29C
:100910001B784846137062460D2353604346537557
:100920000CF0DAF8374838F013F9B2E648460CF024
:10093000B7F8002800D1A0E6244B9C466246083355
:100940001360314A83CA83C362460C235360434613
:10095000484613750CF0C0F82C4838F0F9F88CE6CE
:1009600038000CF09DF8002800D17AE6164B20A93B
:1009700099464A46083313601223002248462093C2
:100980002AF0FCF84B46209A21499A6018601222FE
:1009900007F0B4F94A464146209B3800536012687C
:1009A000D1540CF099F81B4838F0D2F859E6C046FB
:1009B000A424002098240020A0240020A8240020A3
:1009C000AC2400209C240020743B00202C3B002001
:1009D000FFFFFF3FB85F04105C3B00202838002079
:1009E0002C150020E824002070080220C85F0410A5
:1009F0006261636B666F72658C3B0020C9040010F6
:100A00006C5F0410910300105C5F0410A9030010D8
:100A1000485F0410C103001038000CF041F80028B2
:100A200000D157E6B74BB8491A009C4608321A6005
:100A300009C909C2634608225A60424638001A743E
:100A40000CF04AF8B14838F083F843E638000CF06F
:100A500027F8002800D132E6AD4B20A999464A4636
:100A60000833136015230022484620932AF086F8A5
:100A70004B46209AA7499A601860152207F03EF964
:100A80004A464146209B380053601268D1540CF00E
:100A900023F8A14838F05CF811E620000AF0E0FEE7
:100AA000A7E69E4B16AE1F685C681496002F00D117
:100AB0008BE020940F2C00D9A7E0012C00D008E196
:100AC00050213B7802AA521813703300002215946B
:100AD0001A55934B14A806CB2AF08CFA914B159A11
:100AE0009B1A032B00D80AE104228F4914A82AF08C
:100AF00081FA082290461CAF1A97036880440400CC
:100B0000434500D1B7E01A9383681C9363681AA821
:100B10001B9343462360002363602372834B06CB01
:100B20002AF068FA0822904622AB2093994603687F
:100B300080440400434500D197E0209383682293CA
:100B400063687B48219343462360002323726360DC
:100B5000219A209929F084FB036804000C3B1B6850
:100B6000C318DB6F9846002B00D1C6E01B7F002B1B
:100B70002FD027234246D15C200029F011FB29F019
:100B80007FFA2098484501D007F0C6F81A98B84275
:100B900001D007F0C1F81498B04201D007F0BCF8BA
:100BA000644B1C6817E6644B18E6644B16E6644B0E
:100BB00014E6644B12E6644B10E6644B0EE6644B9D
:100BC0000CE6002C00D19DE57CE0002C00D17CE7F8
:100BD00078E0404612F0D4FB43461B685D4A9B69AF
:100BE0000A219342C8D0404698470100C4E7380024
:100BF00012F0C6FB3B68574A9B690A21934200D119
:100C0000D3E5380098470100CFE5002220A914A8B9
:100C100029F0B4FF209B149016932200390007F0AE
:100C20006DF8209C149B51E7002220A902A829F00E
:100C3000A5FF209B029004932200390007F05EF884
:100C4000209C029B5FE5002240461AA929F096FFEE
:100C500043461A9A18609A605A46019907F04EF86E
:100C60001A9B9B46434618680BE6414648460832A5
:100C700007F044F864E741463800083207F03EF8D0
:100C800044E710223900484607F038F873E510228F
:100C90003900404607F032F855E5002218001AA93D
:100CA00029F06CFF43461A9A98611A625A460199D4
:100CB00007F024F81A9B9B4643469869FFE50029F4
:100CC00000D1FCE524481EF0ABF8002A00D1D8E59D
:100CD000F8E73300002C00D1F8E630009DE7330040
:100CE000002C00D10FE53000A6E7002900D1E6E591
:100CF000DCE7002A00D1C4E5AEE71EF081F8174812
:100D00001EF0A6F8443B0020945F0410610300101D
:100D1000983B00207C5F041079030010743B002096
:100D20002C3B0020FFFFFF3FC05F04105C3B002016
:100D300028380020301500203C250020F424002015
:100D4000DC240020482500200C2500201825002048
:100D5000D02400205D0300101C5F0410A05F04106D
:100D60000122F0B515005F4C87B02378BFF35B8F8D
:100D70001D401A4248D0012215005B4C2378BFF376
:100D80005B8F1D401A4200D172E0584B1E68584BD1
:100D90001B78002B50D1574B012219680120FFF717
:100DA0004BFC142003F07EFA534B002219680120FB
:100DB000FFF742FC514C216863685B1A9A10072BBD
:100DC00000D889E004274B684D4D4E49059304AA8D
:100DD000EF232800009704960BF06CF80ACC5B1AFE
:100DE0009A100B2B00D873E08B68280046490393B8
:100DF000059304AAEF23009704960BF05BF82800F4
:100E00000AF024F807B0F0BD20000BF049FE0028DE
:100E1000B1D03C4A3D4B11000831116041CB41C17A
:100E20001B7820000B700923557453600BF054FE9F
:100E3000374837F08DFE9EE7324B364806CB29F017
:100E40000FFA314B06CB29F00BFA036804000C3B78
:100E50001B68C318DD6F002D42D02B7F002B2AD0DA
:100E60002723E95C200029F09BF929F009F992E792
:100E700020000BF015FE002800D186E7224E04A9C1
:100E8000330008333360102300223000049329F02C
:100E900075FE049B2049B3601022306006F02EFFDF
:100EA000049B326820007360D5540BF015FE1B487C
:100EB00037F04EFE69E7280012F062FA2B68184AF4
:100EC0009B690A219342CDD0280098470100C9E7C9
:100ED000022114481DF0D4FF012112481DF0D0FF5B
:100EE0001DF08EFF9024002094240020381500204F
:100EF000280902202C150020301500202425002070
:100F000070080220FC3A0020143B0020E85F041027
:100F10005104001028380020F45F04103904001038
:100F20005D03001008600410F0B58BB000290ADBE7
:100F3000214B1C685A68121B9210914203DA35D279
:100F40004368002B01D10BB0F0BD1C4A890006AEEE
:100F50000F5915681C00006804960A2B1DD800283C
:100F600027D0012B1BD1037804A90B720023059411
:100F700034192370124C04332000009302AAEB337F
:100F8000029503970AF096FF0498B04201D006F04C
:100F9000C3FE200009F05AFFD5E70A24DFE701006D
:100FA0002200300006F0AAFE04A9DFE705481DF084
:100FB00067FF05481DF034FF242500203815002068
:100FC00070080220086004101C5F041030B587B060
:100FD00000236A4602AC0193009413724368050033
:100FE000D91D684629F086FE184B019A9B1A062BDC
:100FF00029D907221649684629F0FCFF06CD684624
:1010000029F0F8FF68460221FFF78EFF0098A04202
:1010100001D006F081FE0F4B00941A6868460292D8
:101020009A880321A2809B796A46A37107230193C2
:101030000023D373FFF778FF0098A04201D006F099
:101040006BFE07B030BD04481DF002FFFFFFFF3FFD
:10105000546004105C600410A05F0410F0B5C84A2E
:101060000C00127899B0002A02D0002800D087E046
:10107000C44D0C21280009F0EFFE00282FD00123D9
:10108000C14A11680B431360C04A13685268934207
:1010900000D195E102AE00961F685D68002F18D060
:1010A00012950F2D5DD8012D00D040E16A463B78A6
:1010B00013723200002301955355019B002B4CD134
:1010C0000098B04201D006F027FE013420B219B0DA
:1010D000F0BD3200002DEDD0AD481DF0A1FE0D2178
:1010E000280009F0B9FE00287CD00223A64A116826
:1010F0000B431360A54B06CB521AD21093009B18DA
:1011000018011B1818021B1818041B185B009A18EA
:10111000012A00D85BE18F6908AECD690696002FE1
:101120005DD012950F2D00D9AAE0012D00D00EE15F
:101130006A4620213B78521813703200002307952D
:101140005355079B002B00D096E00698B04201D083
:1011500006F0E2FD013C20B2B9E76846FFF736FF32
:10116000AEE70022684612A929F008FD129B009004
:1011700002932A00390006F0C1FD129D009A99E7FA
:10118000844D23222800844929F06AF82B680C3BFF
:101190001B68EB18DE6F002E00D116E1337F002BA9
:1011A0005DD02723F15C280028F0FAFF14AD28F069
:1011B00067FF2A00794B129542CB42C21B7812A8D6
:1011C000137009231393002301214374FFF7ACFE2E
:1011D0001298A84200D14BE706F09EFD48E7002D8B
:1011E000ABD079E70E21280009F036FE002865D043
:1011F0000423654A11680B431360644B06CB521AF3
:10120000D21093009B1818011B1818021B18180401
:101210001B185B009A18022A00D8E0E00EAD0C956E
:101220000E6B4C6B002E00D18BE012940F2C36D835
:10123000012C00D0B9E06A46382133785218137077
:101240002A0000230D9413550D9B002B75D10C988B
:10125000A84201D006F060FD0120404237E730008F
:1012600012F08EF833684E4A9B690A2193429AD055
:1012700030009847010096E706A8FFF7A7FE64E74D
:10128000002212A906A829F079FC129B0690089367
:101290002A00390006F032FD129D069A4EE7002220
:1012A00012A90CA829F06AFC129B0C900E93220044
:1012B000310006F023FD129C0C9AC2E70F21280092
:1012C00009F0CAFD002840D008232F4A11680B43BB
:1012D00013602E4B06CB521AD21093009B181801A4
:1012E0001B1818021B1818041B185B009A18032AF5
:1012F00071D914AD12958E6CCC6C002E52D00C941A
:101300000F2C2ED8012C56D16A4650213378521812
:1013100013702A00002313941355139B002B1CD128
:101320001298A84201D006F0F7FC0020CFE6320068
:10133000002D00D1BEE630001BE70CA8FFF746FEEB
:1013400085E7002C00D17BE7C6E62000BFE632002F
:10135000002D00D1F2E630009AE712A8FFF736FE22
:10136000DEE700220CA912A829F008FC0C9B1290C1
:1013700014932200310006F0C1FC0C9C129AC9E7BC
:101380002809022070080220B440002030250020E7
:101390001C5F04102838002064600410886004106A
:1013A0005D030010002CB4D096E62A00002C00D17A
:1013B00047E728007BE72A00002CABD02800D8E7BD
:1013C0000022094811001DF05BFD1DF019FD0121EF
:1013D00005481DF055FD032103481DF051FD022174
:1013E00001481DF04DFDC0460860041008B4F0B57A
:1013F0000D00110082B01C236E460400C81D00AF12
:10140000C008FB18C000301A04CB85463B60A847D3
:101410000500200008306E4620607D600F2D10D83A
:10142000012D0BD13378237200236560BD464355EF
:10143000200002B0F0BC08BC01B01847002DF3D06A
:1014400007E000222000391D29F098FB7B6820600E
:10145000A3602A00310006F051FC7D682068E3E7B4
:10146000F0B501224E464546DE465746E0B5160029
:10147000D94D04002B7899B0BFF35B8F1E401A4200
:1014800000D147E101221600D44D2B78BFF35B8FCA
:101490001E401A4200D124E101221600D04D2B78C3
:1014A000BFF35B8F1E401A4200D101E108AB0693E7
:1014B0009B460023CB4E06AF07933B723378BFF3B6
:1014C0005B8FDB0700D499E0C74B01221B6801202A
:1014D0009946C64B1968FFF7AFF8142002F0E2FEF8
:1014E000C34B002201201968FFF7A6F8012C3ED05B
:1014F000022C14D0BF4B9846404609F0A7FCFA20B6
:10150000C00002F0CFFE0698584501D006F004FC5A
:1015100019B03CBC90469946A246AB46F0BDB64BCE
:101520001B78002B00D016E1B44E72683368D11AD4
:101530008A100F2900D86BE2AE4A01249046B04AC7
:1015400012AD924614AFA200D358012C00D1F0E1A5
:10155000022C00D119E14A4612926B6004232A0042
:1015600000934046A749EB330AF0A4FCC4E7A34E1E
:1015700033687268934200D145E2A34C12AD20005B
:1015800009F068FBA14B1022A14900902800FFF749
:101590002DFF3800139A129929F02CFD129814ABE4
:1015A000984201D006F0B8FB934B1B78002B00D07B
:1015B00080E1904B01249A4633687268D21A9210E7
:1015C000A24200D804E1A200D3589846012C00D1D1
:1015D0003CE14B462B6043466B60022C00D1B0E0EF
:1015E00004232A00009339005046EB33D0460AF01A
:1015F00061FC032C00D17FE70134DDE730000BF004
:101600004FFA002800D15FE70CAB9A460EAB994623
:101610000C93804B1A685B6803929846002A00D1AD
:10162000D8E112930F2B00D9BDE1012B00D0E4E1EA
:101630001378524613724A46434641460D9300239F
:1016400053540D9A744B9B1A032B00D8E6E10422E5
:101650005046724929F0CEFC6A4B504606CB29F021
:10166000C9FC08226E4B050018009246083018602D
:1016700098462B68AA44534500D1B0E14246136016
:101680004346AA689A6043466A6830005A605346E7
:101690002B6000236B602B720BF01EFA614837F051
:1016A00057FA0C98484500D10EE706F035FB0BE7DA
:1016B00028000BF0F5F9002800D1F7E65A4B9C46BC
:1016C000624608331360594A83CA83C362460C23B7
:1016D0002800536016750BF0FFF9554837F038FABB
:1016E000E4E628000BF0DCF9002800D1D4E6454BF5
:1016F00050491A0008321A600868986089882800E2
:10170000918006229E735A600BF0E6F94A4837F042
:101710001FFAC1E628000BF0C3F9002800D1B1E69A
:101720003C4B46491A0008321A6081C981C208221E
:1017300028005A601E740BF0CFF9414837F008FAC0
:10174000A0E604232A00009337492A48EB330AF025
:10175000B1FB013430E7324B3A4806CB28F080FD2C
:10176000036804000C3B1B68C318DD6F002D00D11B
:1017700052E12B7F002B00D107E12723E95C2000F9
:1017800028F00EFD28F07CFCCEE652462F60128831
:1017900040463A80524692782900BA70032213924A
:1017A00000220D93EA7204234A4600930C92EB3315
:1017B0000CAA0AF07FFB1298B84201D006F0ACFAEE
:1017C000336872680134D21A9210A24200D9BAE684
:1017D00021001D481DF054FBB4240020C02400202B
:1017E000B8240020BC240020381500202C1500202F
:1017F000301500207008022028090220242500202E
:10180000C4600410103C00205003022074610410D6
:10181000796A0010C83B0020FFFFFF3FB86004104A
:10182000F83B0020D9030010E03B0020A860041022
:10183000F1030010A060041009040010946004106B
:1018400021040010283800200860041014AB2B601D
:10185000744B1A685B6805920393002A00D1B3E0C9
:101860000C930F2B00D97EE0012B00D0BCE0137845
:101870002B720CAB14AA0493002303992800139134
:101880005354694B06CB29F0B5FB4B46049A674885
:10189000136043465360042329000093EB330AF09E
:1018A00009FB129814AB984200D1A5E606F034FA71
:1018B000013481E65B4B5E4806CB28F0D1FC5A4BE5
:1018C00006CB28F0CDFC804601225A4928F0C8FCFE
:1018D000594B404606CB28F0C3FC804603680C3BBE
:1018E0001A684A234244D16899430B0008210B43EC
:1018F000D3605249022228F0B3FC200009F0AAF973
:101900000100404628F080FE036804000C3B1B6881
:10191000C318DB6F9846002B7ED01B7F002B14D0A2
:1019200027234246D15C200028F03AFC28F0A8FB8F
:101930003FE64A466B6004232A60404600932A0033
:101940003849EB330AF0B6FA3AE7404611F018FD91
:1019500043461B683A4A9B690A219342E3D04046BA
:1019600098470100DFE70CAB190000222800049320
:1019700029F004F90C9B12901493039A059906F030
:10198000BDF90C9B129A039376E7280011F0F8FC3E
:101990002B682B4A9B690A21934200D1EFE628006D
:1019A00098470100EBE612AD00222900504629F0CD
:1019B000E5F8129B0C900E934246039906F09EF9AF
:1019C000129B0C9A984637E6002B00D151E71D4830
:1019D0001DF026FA4A46002B00D12DE6F7E75146C6
:1019E000083206F08BF94EE60CAB0493039B14AA65
:1019F000002B00D140E71000BFE74A46002B00D182
:101A00001AE64846D8E700220F4811001DF038FAC0
:101A100003210D481DF034FA1DF0F2F90B481DF0BA
:101A200017FAC046C83B0020103C00207008022076
:101A300028380020905F0410E03B0020C0600410B4
:101A40005D0300101C5F041008600410A05F041008
:101A50000122F0B5C646170000B5684D06002B7888
:101A600094B0BFF35B8F1F401A4200D181E0644CF9
:101A7000644B012219680120FEF7DEFD142002F0FC
:101A800011FC614B002201201968FEF7D5FD276883
:101A900004AD64680295002F00D187E00E940F2CEE
:101AA00058D8012C00D0A0E06A463B7813742B0074
:101AB000002203941A55039A544B9A4200D19AE09B
:101AC0000122534902A829F095FA1022514B08A887
:101AD00051490096FFF78AFC039C099A029BA018C3
:101AE000AB4200D17DE0049988425BD908990AAEE7
:101AF000B046B14200D176E00A9EB0425DD902A85C
:101B000029F078FA0400270010AE0E9623680837F3
:101B1000BB4260D00E93A368109363680EA80F9326
:101B200000230121276063602372FFF7FDF90E98FF
:101B3000B04201D006F0F0F80898404501D006F018
:101B4000EBF80298A84201D006F0E6F814B004BC05
:101B50009046F0BD00220EA902A829F00FF80E9BB6
:101B6000029004932200390006F0C8F80E9C029BF4
:101B70009EE728000AF094FF214C002800D177E767
:101B80002300264A0833236011682800A160928848
:101B90009A800623A77363600AF09EFF204836F000
:101BA000D7FF65E70AAB98460899A8E72B00002CF9
:101BB00000D17DE71B481DF033F90094002200217D
:101BC00008A829F04DF90400270010AE0E962368EE
:101BD0000837BB429ED110223900300006F08EF843
:101BE0009BE70F2180E70F2687E72B00002C00D111
:101BF0005EE72800B6E70C481DF02AF9B024002063
:101C0000B03B00202C15002030150020FFFFFF3FC7
:101C1000905F041074610410796A0010C8600410A9
:101C2000690400101C5F0410A05F041070B5046804
:101C300045680600AC420AD0230020680833984269
:101C40000CD0183406F068F8A542F5D13568002D9F
:101C500002D0280006F060F8300070BD1834A542AC
:101C6000EAD1F3E7F0B5DE4657464E464546E0B5C5
:101C7000444CA544012800D1A8E0434C206808F05A
:101C8000D3FD00226068110001F004FE60681F218E
:101C900001F0DEFD0022A068110001F0FBFDA0684C
:101CA0001F2101F0D5FD394B994630CBAC4207D00E
:101CB0002068002861D00C3406F02EF8AC42F7D131
:101CC0004B461868002801D006F026F8304B1868FB
:101CD000002801D006F020F82E48FFF7A7FF2E4B72
:101CE0001868002801D006F017F82C4B1868002857
:101CF00001D006F011F82A4B1868002801D006F030
:101D00000BF8284B1868002801D006F005F8264B80
:101D10001868002801D005F0FFFF244B1868002840
:101D200001D005F0F9FF224B1868002801D005F01A
:101D3000F3FF204B1868002801D005F0EDFF1E4B83
:101D40001868002801D005F0E7FF1C48FFF76EFF78
:101D50001B48FFF76BFF1B4B1868002801D005F0EC
:101D6000DBFF19480BF0AEF995239B009D443CBC6A
:101D700090469946A246AB46F0BD0C34A54297D199
:101D80009EE7C046ACFDFFFF500802203021002036
:101D90004021002030250020F424002020210020B4
:101DA00048250020E8240020182500200C250020CC
:101DB000D02400203C250020DC24002060210020CD
:101DC0005021002024250020F83A0020F9480BF08B
:101DD00069F9F94B4EAC98462300424623CA23C307
:101DE00000251268F5481A60210052AA0560456076
:101DF0008560FEF745FBF2492000FEF783FBF14EBC
:101E000054A83100FEF77EFBEF495AA8FEF77AFB93
:101E1000EE4960A8FEF776FB66AB1800EC499946E0
:101E2000FEF770FBEB496CA8FEF76CFBEA4972A861
:101E3000FEF768FBE94978A8FEF764FB002200235F
:101E4000E74821000260436085607EAAFEF78EFBB2
:101E50007EAD183D2B0028680833984200D12AE354
:101E600005F05AFFA542F4D1DE492000FEF74AFBF7
:101E7000310054A8FEF746FBDB495AA8FEF742FBA7
:101E8000DA4960A8FEF73EFBD9494846FEF73AFB1F
:101E9000D8496CA8FEF736FBD74972A8FEF732FB8B
:101EA000D64978A8FEF72EFB00220023D448210053
:101EB0000260436000237EAA8360FEF757FB7EAD7D
:101EC000183D2B0028680833984200D1EFE205F056
:101ED00023FFA542F4D100250C220021200005F0AB
:101EE00007FFC848210005604560856051AAFEF7DC
:101EF000C7FA290008224FA805F0FAFE7823C24845
:101F0000210005604560856051AA9A464E93FEF710
:101F1000B7FA43462200103343CB43C2BB482100EB
:101F200005604560856051AAFEF7AAFA8023FF226A
:101F3000B748A56005604E924F93456085602100CB
:101F400051AAFEF79DFAFF23FF22B248A560056063
:101F50004E924F9345608560210051AAFEF790FA9A
:101F600029000C22200005F0C3FE5346AA48210098
:101F700005604560856051AA6360FEF781FA002222
:101F800000234E924F935346A448210005604560BC
:101F9000856051AAA360FEF773FA434622001C3302
:101FA00043CB43C2002300229D48210002604360CE
:101FB000856051AAFEF764FA43462200283343CBDA
:101FC00043C2984851AA0560456085602100FEF72C
:101FD00057FA95492000FEF795FA944954A8FEF760
:101FE00091FA93495AA8FEF78DFA924960A8FEF734
:101FF00089FA91484A460560456085602100FEF7F0
:10200000B5FA66AB99461D00183D2B0028680833C9
:10201000984200D153E205F07FFEA542F4D164223C
:102020000021200005F064FE17236360013BA360DC
:10203000013BE360013B2361013B6361013BA36121
:10204000013BE361013B2362013B6362013BA3620D
:10205000013BE362013B9B462363013B6363013B1E
:10206000A363013B002500210022E363013B9A4664
:102070002364013B6364013BA364013BE364013BD4
:102080006E482365013B6365013B01604260A365C7
:102090002100013B856067AAE365FEF7F1F952462E
:1020A00029004CA805F024FE00210022FF234E91B8
:1020B0004F92200022004BA9A5601E004B93FEF713
:1020C000DFF93F23FF221EA91E921F9351A821AAC8
:1020D000E5602561656192462095FEF7D1F97F2381
:1020E000FF2200211A921B93002254A8549155926A
:1020F0001DAA1AA925621C95FEF7C2F9BF23FF226B
:1021000016A91692179357A819AA6562A562E562E7
:102110001895FEF7B5F9FF23FF22002112921393C1
:1021200000225AA85A915B9215AA12A9A563149588
:10213000FEF7A6F9FF23BF220EA90E920F935DA80A
:1021400011AAE563256465641095FEF799F9FF23EC
:102150007F2200210A920B93002260A86091619275
:102160000DAA0AA925650C95FEF78AF9FD233F22E1
:1021700006A90692079363A809AA6565A565E565A2
:102180000895FEF77DF95A46290048A805F0B0FDEC
:102190000021002248466691679248A94BAAA5668D
:1021A0004996FEF76DF945AA91464246343213002E
:1021B0004A4645E0F83A0020A0610410242500209A
:1021C000D060041058B80410D4600410D860041013
:1021D000DC600410E0600410E4600410E8600410A7
:1021E00050210020EC600410F46004100061041021
:1021F00008610410106104101861041020610410BB
:1022000060210020DC2400203C250020D024002078
:102210000C25002018250020E82400204825002057
:1022200020210020F4240020286104102C610410D7
:1022300008B4041030610410302500204021002033
:10224000370043CB43C2494669A848AAE5662567DB
:102250006567FEF715F942AA9346424640321300DD
:102260005A4643CB43C28023002100226CA86C91C4
:102270006D9259464A46E550FEF702F93FAA91464B
:1022800042464C3213004A4643CB43C28423E550B6
:102290000433E550043349465A466FA8E550FEF72B
:1022A000EFF83CAA93464246583213005A4643CBB5
:1022B00043C298230021002272A87291739259465A
:1022C0004A46E550FEF7DCF839AA914642466432A8
:1022D00013004A4643CB43C29C23E5500433E550E8
:1022E000043349465A4675A8E550FEF7C9F836AAA0
:1022F00093464246703213005A4643CB43C2B02342
:102300000021002278A87891799259464A46E550F2
:10231000FEF7B6F833AA914642467C3213004A468D
:1023200043CB43C2B423E5500433E55004335A464B
:102330004946E5507BA8FEF7A3F83B0000210022A8
:10234000373B7E917F92029103927EA802A9E550CD
:1023500005AA0497FEF794F830AB9B465A46794B92
:1023600000279846083343CB43C2CC23E5500433BF
:10237000E550043359464A4681A8E550FEF780F8F7
:102380002DAB994643464A46143343CB43C20026FD
:10239000E0238496859749465A4684A8E550FEF77F
:1023A0006FF82AAB9B4643465A46203343CB43C281
:1023B000E423E5500433E550043359464A4687A8E0
:1023C000E550FEF75DF827AB994643464A462C3365
:1023D00043CB43C200270026F8238A968B974946B1
:1023E0005A468AA8E550FEF74BF824AB9B46434675
:1023F0005A46383343CB43C2FC23E5500433E550FF
:1024000004334A4659468DA8E550FEF739F843464D
:102410005246443343CB43C28823002600275B0047
:102420005A46909691975146E55090A8FEF728F8A5
:10243000454B8A2099461E605F609D60400005F014
:1024400063FC4B46186003004A461533FF33060011
:10245000A04693601FE08022920593426FD25046BF
:1024600005F052FC434606CB531A07009B465346E1
:10247000FB1837607760B3608A4203D05A46380051
:1024800043F022FD0C239C465F44E04493AB77600D
:102490000C36984517D0434606CB531A9A463560FA
:1024A0009B107560B560D6D1D3460027DFE7A54203
:1024B00000D005E50FE5A54200D0CAE4D4E4A5426A
:1024C00000D0A1E5ABE54B46909890AD5E6000284A
:1024D00009D005F021FC2B000C3BAC4207D01D00BD
:1024E00028680028F5D12B000C3BAC42F7D11749E6
:1024F000174808F0E3FB174C174B20002360142308
:1025000063600133A360154B012623611623E3604A
:1025100008F0E0FA0023124D0F2201932100FF334F
:102520002800009600F06EFBEC23FE22EE5492058C
:102530000433EA50FF220433EA50FFF715FC1CF085
:102540004FFCC0462062041030210020B84000201B
:10255000700802205008022024160020801A06006D
:1025600050030220F8B5CE46474604000D0080B562
:1025700081421CD04B680F689946DE1B0368B2107D
:102580009846414683685B1A9B109A4214D840686B
:10259000411A8B109A422ED84F453CD03200390058
:1025A000404643F091FC23689C46664466602000E8
:1025B0000CBC90469946F8BD0025002A09D080231E
:1025C0009B059A4233D2300005F09EFB236805003C
:1025D00098464F4504D032003900280005F08EFBA4
:1025E0004346002B02D0404605F096FBAE1925600D
:1025F000A6606660DBE70A1E0AD03900404643F059
:1026000063FC6B686068994623682F689846C21A15
:10261000B918494502D146446660C8E74B465A1A84
:1026200043F052FC23689C4666446660BFE71CF09A
:10263000D7FBC046F0B5DE4657464E464546E0B5A8
:102640008FB008AC00210C220600200005F050FBE2
:10265000002200230492059300230C20069305F02A
:1026600053FB050021000C350C220695049005F063
:1026700045FB2200A94B0595503323CB23C21B6891
:102680001020136005F040FB10222100050005F02A
:1026900035FBA34B9A461B78002B00D082E0A14B60
:1026A0001B78002B0BD0A04A0CCA9B1A9B1000D1A0
:1026B00025E1012B00D827E1022B00D11AE1002EE1
:1026C0005ADB70B2182104F063FA53461B780F00EE
:1026D0004EB2002B00D0CBE0944B984643461F6887
:1026E0005868C01B801083001B181A019B181A021F
:1026F0009B181A049A1852001218964239D2F143C4
:10270000C9170E40964200D303E171008919890070
:10271000791804A8FFF726FF049A059B9B1A9B10C3
:1027200000D1ECE01668F7B2012B00D8ECE051685C
:10273000C8B28046022B00D1DCE09368DAB2914641
:1027400052461278002A32D14B4642463900784828
:1027500008F08CFA280005F0DFFA0498002801D070
:1027600005F0DAFA0FB03CBC90469946A246AB465B
:10277000F0BD561E76B2C5E77042182140B204F093
:1027800007FA53461B780E00002B00D088E0694AF8
:1027900013685268D21A92108A4200D8B9E0B60083
:1027A0009E5799E73100644805F0DCFC77E7FF228B
:1027B000114016401A401300029103925F480A002C
:1027C000310005F0CFFC53461B78002BBCD0022211
:1027D0005B4B02211A605B4B01209A460423524650
:1027E00013600122FDF728FF142001F05BFD534622
:1027F000002219680120FDF71FFF534B10229B4652
:10280000524B20009A4600965B465146FEF7EEFD7D
:1028100020000021FEF788FB08980AAEB04201D0E4
:1028200005F07AFA029B10225146200000935B4685
:10283000FEF7DCFD20000121FEF776FB0898B04290
:1028400001D005F069FA039B102251462000009345
:102850005B46FEF7CBFD20000221FEF765FB0898E2
:10286000B04201D005F058FA394801F01BFD6BE782
:102870002E4B38485A6898461B68D21A921093001B
:102880009B1819015B1819025B18190459184900A3
:10289000891805F067FC39002F4805F063FC1DE737
:1028A000224B2C485A6898461B68D21A9210930003
:1028B0009B1819015B1819025B1819045918490073
:1028C000891805F04FFC3100234805F04BFC194AEC
:1028D00013685268D21A921096421AD2B6009E57C6
:1028E00053461B78002B00D1F8E631001B4805F059
:1028F00039FCF3E602221A4811001CF0C1FA00224A
:10290000174811001CF0BCFA0122154811001CF0F8
:10291000B7FA310012481CF0B3FAC0462062041026
:102920002809022034150020F42400203021002042
:10293000500302204021002034610410546104102F
:102940002C1500203015002074610410796A0010E5
:10295000B80B000064610410786104104061041039
:1029600008600410F0B5DE46574645464E46E0B5D1
:1029700093B093496846FDF7C5FD924906A8FDF757
:10298000C1FD192000F0B2FFD02380221B06920463
:102990005A6205F0F3FB8C4808F0BAF9C82001F040
:1029A00081FC8A4D012229680120FDF745FE142093
:1029B00001F078FC864C002201202168FDF73CFEE6
:1029C00084490CA8FDF79EFD0CA80021FEF7ACFA87
:1029D0000C980EAFB84201D005F09EF97E490CA8C4
:1029E000FDF790FD0CA80121FEF79EFA0C98B84265
:1029F00001D005F091F9FA20C00001F053FC774EA8
:102A00000021300008F0E0F88146002844D1744BE2
:102A100009CB1B1A9B1000D1C3E00178012B00D811
:102A2000C9E00279022B00D1C0E0037A300008F03F
:102A30001DF90220FEF714FDD0238022FA201B0688
:102A400092045A61400001F02DFCFEF789F9654BB4
:102A500009CB1B1A9B1000D1A3E00178012B00D8F1
:102A6000A9E00279022B00D1A0E0037A8025300092
:102A7000D026AD04360608F0F9F801275A4C7561E6
:102A800005E075617B406420237001F00BFC237826
:102A9000002BF6D1B561F5E7300008F0E3F801222C
:102AA00004230221100023602960FDF7C5FD1420D6
:102AB00001F0F8FB002201202168FDF7BDFD4B4924
:102AC0000CA8FDF71FFD0CA80121FEF72DFA0C98AC
:102AD000B84201D005F020F90120FEF7C1FCFA2030
:102AE000800001F0DFFB012229681000FDF7A4FD42
:102AF000142001F0D7FB216800220120FDF79CFD86
:102B0000300008F0AFF83A4B00279A46D0231B0656
:102B10003D009B46344C23E0516101225340524614
:102B200023700F23126830009A431300524613603B
:102B300008F094F800281BD129000020FEF78EFA37
:102B400053461B6805005B0700D57EE7002801D0CF
:102B5000874202D02800FEF77BFF142001F0A2FB81
:102B6000802123785A468904002BD5D19161D4E77E
:102B7000300008F091F84B468046002B01D1874287
:102B800008D0ED1B45442DB22800FFF753FD280067
:102B9000FEF75EFF300008F065F8002347469946CF
:102BA000CAE70022134811001CF06AF902221148FA
:102BB00011001CF065F901220E4811001CF060F9AB
:102BC000BC6704105C640410700802202C150020FF
:102BD00030150020846104108C6104105003022021
:102BE0003C250020F42400202A09022094610410CE
:102BF000B44000200860041010B50120FFF732F83F
:102C000010BDC04670B5040004A820C8A3600078B9
:102C1000454B20742000636121602271002108224D
:102C2000E560183005F064F82000404D08220021CE
:102C3000203005F05DF8A5673D4D0121E567802551
:102C40003C4A3D4B22643D4AA36262643C4A3D4B90
:102C5000A2643D4AE36222653C4A3D4B62653D4ABF
:102C60002363E2653C4A3D4B62663D4A6363A2666C
:102C70003C4A3D4BE2663D4AA36322673C4B3D4ADA
:102C80003D483E4EE363E064A3652166626766519A
:102C90000435605188203A4DC0262550394D043006
:102CA0002550394D0430225004302550374D043022
:102CB0002550374D04302550364D04302550364DC3
:102CC00004302550354D04302550354D0430255005
:102CD000032504302550334D04302550324D043047
:102CE0002550BC253148B602605104356651304E3E
:102CF0000435665104356251CC222E4DA5502E4D1F
:102D00000432A5502D4D0432A5500432A05080202D
:102D100004328002A0502A480432A0500432A3504A
:102D2000E8232000E15070BD33335340009ECAC7F2
:102D300003000101019E9C940100010501000102B4
:102D400000007374000573749A920100010400017D
:102D500050C401C901C99B9300037172CBC8010023
:102D600040C2009E9D950100010000020001000488
:102D7000737450C4717240C250C4019E07017374D1
:102D80009B93030000030605009ECBC803000004CC
:102D90000503717240C200C99D9502000300010045
:102DA0006C6D70C0020000060300717240C200002A
:102DB0000005040200C99C94020000070200717221
:102DC00001070000007940B27047C04683680B4A93
:102DD00010B5934209D0D02212065068D8400300A3
:102DE000012018400123584010BD0179F9220068E4
:102DF00007F0D0FE01231840F6E7C046FFFFFF7F33
:102E000070B5F92204000179006807F0C3FE0021C3
:102E100005000A2001F02EFAFE23F9222B40217929
:102E2000206807F0A9FE70BD10B5202911D800292F
:102E300014D0202912D8124A8B00D3589F46012360
:102E400001799F22006807F097FE012010BD002342
:102E5000F6E740290AD007238029F1D0007C00281A
:102E6000F4D0084805F07EF90020EFE70623E7E7F5
:102E70000523E5E70223E3E70323E1E70423DFE794
:102E8000A462041080620410013970B5C9B24C000C
:102E900004192023E55E124B5A5C0179006807F0A3
:102EA00079FE83B202060DD402B2403505DA40281D
:102EB00003D9218B0139FF392183208B181800B2E7
:102EC000228470BD5A1EFF3A93B212B2402DF4DD37
:102ED00011004031F1DA218B0131FF312183ECE720
:102EE000A0640410F8B5140030230A0005000E0099
:102EF0009A43402A11D032000179006807F04AFE57
:102F0000070000210A203C4301F0B4F9320029797E
:102F10002868E3B207F030FEF8BDE3073ED4A3070C
:102F200035D463072CD4230723D4E3061AD4A3068D
:102F300011D4630608D4E411EED00F2332002979AE
:102F4000286807F019FEE7E70E2332002979286880
:102F500007F012FEEFE70D2332002979286807F009
:102F60000BFEE6E70C2332002979286807F004FEFF
:102F7000DDE70B2332002979286807F0FDFDD4E74F
:102F80000A2332002979286807F0F6FDCBE70923E8
:102F900032002979286807F0EFFDC2E7017908239C
:102FA0003200006807F0E8FDB9E7C04670B50400DC
:102FB0000E0001F065FA002934D0FA2200239200B5
:102FC00003F050FE0500402298212000FFF78AFF01
:102FD000002E1AD0402698222179206807F0DAFDC9
:102FE000064212D0012001F05DF901F049FA0029F2
:102FF0000CD0FA220023920003F034FEE368401B59
:103000008342E8D8237C002B12D170BDFA218900BD
:1030100003F0E6FDE368401B9842DCD3237C002BE1
:10302000F3D005E0FA21890003F0DAFD0500CAE7D4
:10303000014805F097F8E8E75463041070B5040000
:103040000D00CBB2160001799922006807F094FDBB
:103050009122217920682B0A07F08EFD002E00D1E5
:1030600070BD01212000FFF7A1FFF9E770B51D4BEE
:10307000040080680D00984216D0052100F0E8FB9E
:103080000123A068D022834012069362012100220E
:1030900000F000FC0222F9212000FFF723FF0422A8
:1030A000F9212000FFF71EFF002D01D0012070BD87
:1030B000FB222179206807F06DFDFA2205002179B5
:1030C000206807F067FD2D020543074AA9B2914227
:1030D000ECD0207C0028EAD0044805F043F800201A
:1030E000E5E7C046FFFFFF7F6AE20000746304105B
:1030F000F8B5170030230A0004000E009A43402A56
:1031000011D032000179006807F044FD050000216C
:103110000A20BD4301F0AEF8320021792068EBB2FD
:1031200007F02AFDF8BDFB073ED4BB0735D47B076B
:103130002CD43B0723D4FB061AD4BB0611D47B0640
:1031400008D4FF11EED0072332002179206807F060
:1031500013FDE7E7062332002179206807F00CFD14
:10316000EFE7052332002179206807F005FDE6E747
:10317000042332002179206807F0FEFCDDE70323F9
:1031800032002179206807F0F7FCD4E702233200EF
:103190002179206807F0F0FCCBE701233200217988
:1031A000206807F0E9FCC2E70179002332000068DB
:1031B00007F0E2FCB9E7C046F0B5C6464F1E984698
:1031C000FBB20500160000B50D2B4ED8FC00E01B2D
:1031D0004000281829300378052B29D0002A13D164
:1031E0002B7C002B49D1E41B64002C192300012205
:1031F0002B331B7830349A4028002178D2B2FFF765
:1032000077FF04BC9046F0BD012AFAD12B7C002B3D
:1032100037D1E41B64002C19230001222B331B78C7
:1032200030349A4028002178D2B2FFF75BFEE8E7FD
:103230002B7C002B1DD1E41B64002C19220034329E
:10324000127829792868F3B2353407F095FC330AEF
:1032500022782979286807F08FFC4346002BD0D0CC
:1032600001212800FFF7A2FECBE7084804F07AFF0F
:10327000C7E7074804F076FFDDE7064804F072FF71
:10328000B1E7054804F06EFFC3E7C046346304109D
:103290009C630410B8630410D4630410F0B5464670
:1032A000D6464F46C0B54E1EF3B2040082B00D2B79
:1032B00061D8F500AB1B5B00C31829331A78102ABC
:1032C00065D010221A70037C002B58D1AB1B5B0019
:1032D000E31819000122283109780A425FD12E2310
:1032E0009A46AD1B6D006519AA44534621791A7898
:1032F000206807F04FFC2F239946A9444B4606004F
:103300001A782179206807F045FC2B23984601277D
:10331000A844434639001B789940C94333004AB258
:103320001340024056B25246217912782068DBB22F
:1033300007F022FC4A46217912782068F3B207F0A0
:103340001BFC43461B7820009F402B00313319782B
:10335000FAB2FFF7C7FD434608221B783035134306
:1033600021792A78206807F007FC02B01CBC90463F
:103370009946A246F0BD0F4804F0E6FDF5E70E4B76
:103380000E4A00930E480F4B04F0ECFE9EE7037CC0
:10339000002BEAD009490C4804F0E4FEE5E71900E7
:1033A0002D31097833338A4020001978D2B2FFF7E3
:1033B0009FFE94E72863041038640410F06304103F
:1033C0000C64041008640410F463041070B5F9224E
:1033D00004000E000179006807F0DCFB0021050005
:1033E0000A2000F047FF02232B43F92221792068AD
:1033F000DBB207F0C1FB0422F9212000002E02D02D
:10340000FFF770FD70BDFFF773FEFBE7F0B55746A1
:103410004E464546DE46E0B587B0049310AB1B78B8
:103420004F1E9946FBB2040015000D2B00D9C3E0D6
:10343000032029260300B4461340921010402A119D
:103440000392FA000292D21B5200A21894446646DC
:103450003678AE4200D1D8E000286ED162461570B1
:10346000227C002A00D0ABE09846052D00D171E007
:10347000029B0122DB1B5B00E3181900283109784D
:103480000A4200D0CCE0029B2179DB1B5B0099460D
:103490002E23A1444B441A7820689A4607F07AFB01
:1034A0002F234B441A782179059020689B4607F01A
:1034B00071FB4B462B331A78944601226646110065
:1034C000B140464673106646B3409846C9434646E7
:1034D000059B49B20B40334366462A40B240084040
:1034E000024352B291465246217912782068DBB2EB
:1034F00007F042FB4B465A46217912782068DBB22E
:1035000007F03AFB102D6DD0022D6BD0029A039B71
:10351000D61B7600A61932002B321278DB0030362B
:10352000134321793278206807F026FB07B03CBCB2
:1035300090469946A246AB46F0BD28321278D6078F
:103540002CD5052D2AD162461570227C002A37D150
:10355000012398462D229346029B0121DB1B5B0031
:10356000E3189B445A4612788A4691403333CAB2D4
:1035700020001978FFF7B6FC5B464A461B78002A04
:103580006CD152469A4096212000D2B2FFF7B0FD8E
:10359000802298212000FFF7A5FC74E7920701D54F
:1035A0000A2D4FD0237C002BC0D0304B8000C25856
:1035B0002F4804F0D7FDB9E72E4804F0C5FCB5E765
:1035C0009A0098462C4B8000D358284A82582811DC
:1035D000800084466646294830580090284804F008
:1035E000C1FD42E7029BDB1B5B00E3181A0031328E
:1035F0001178049A2B331B78002A1CD001229A40A0
:103600002000D2B2FFF76EFC80E7237C002B00D1B4
:103610008CE7164B8000C1581A4804F0A3FD85E7DB
:1036200019002D31097833338A4020001978D2B23D
:10363000FFF75EFD27E701229A402000D2B2FFF794
:1036400057FD63E7029AD21B5200A2182932157067
:10365000227C002AB4D10223984609E752469A40B8
:1036600096212000D2B2FFF73DFC91E78864041058
:1036700040640410286304107864041094640410F7
:103680000C640410F4630410F0B5DE464E46454663
:103690005746E0B587B01D0010AB1B780400984674
:1036A00011AB1B780139CEB2110099461700FFF714
:1036B000F5FD29002000FFF7F1FD4346002B33D133
:1036C0005B4A2B013B43925DDBB22179206807F016
:1036D00053FA4A467500EDB26B1CDBB2002A1BD0D0
:1036E00001229A4004212000D2B2FFF7FBFB012205
:1036F000AA4020000421D2B2FFF7F4FB4D4B217900
:103700009A5D2068002307F037FA07B03CBC90466A
:103710009946A246AB46F0BD01229A400421200002
:10372000D2B2FFF7E5FCE2E701235B4243449A464D
:10373000DBB20D2B5CD853465246DB009B469B1AEE
:103740005B00E31829331A78032A55D003221A7034
:10375000237C002B58D152465B469B1A5B00E31832
:1037600019000122283109780A4256D152465B4697
:103770009B1A5B009A462E23A24453441A7821795F
:1037800020689B4607F006FA2F2353441A782179C4
:1037900003902068049307F0FDF92B210122514486
:1037A0000B7805919A40039B52B21343024350B2E7
:1037B0005A46217912780390DBB2206807F0DCF9D1
:1037C0006B46049A1B7B12782179206807F0D4F9A4
:1037D0005246059930320B7812782179206807F02B
:1037E000CBF90123002241462000FFF7E5FC67E703
:1037F000114804F0A9FBF4E7237C002BF1D00F491A
:103800000F4804F0AFFCECE70E4B414600930B4A27
:103810000D4B0E4804F0A6FC9DE719002D310978E8
:1038200033338A4020001978D2B2FFF761FC9DE75C
:103830009C640410A064041028630410F063041056
:10384000F463041064640410606404100C640410D5
:10385000094A830094464022634410B51C68C000A6
:103860006240C02414408022520113431C60034B69
:103870009C466044416010BD04C0014000400140CE
:10388000034BC0009C46604443681F2018407047AB
:10389000004001400A4B80009C46042360440029FC
:1038A00001D00C230821002A00D10B0002685340EC
:1038B0000C221A4080235B01184302607047C04607
:1038C00004C00140084B80009C466044002905D09C
:1038D00080239B011843402303607047C0239B0152
:1038E000184340230360F8E704C001400123D022BD
:1038F0008340120693629361094A830094464022F2
:1039000063441968C0004A40C0211140802252011E
:1039100013431960034B9C46052360444360704782
:1039200004C0014000400140F8B5EFF3108772B6C3
:103930000E4E3368002BFCD0BFF35F8FCB08C4184A
:103940000725A446C45C01230D40AB40180020406D
:10395000234208D1624623431370BFF35F8F306068
:1039600087F31088F8BD100001F080F92C0100D019
:10397000F8B5CE4647468C4680B5EFF3108872B650
:10398000214D2C68002CFCD0BFF35F8F9A422CD8BD
:10399000D4080721055D0619012411408C402C42F2
:1039A0001FD007218946063909E0D408055D0619AC
:1039B0004C460F001440A7403C002F4211D001326A
:1039C0009342F2D201204042BFF35F8F00220E4BA0
:1039D0001A6088F3108800280FDB0CBC90469946CB
:1039E000F8BD2C4310003470EEE7BFF35F8F002367
:1039F0002B6088F31088012040426346002BECD0F6
:103A0000089801F033F9C0462C0100D0024B186829
:103A10008007C00F7047C04600C006400021044B1D
:103A2000044ABFF35F8F02C39342FAD17047C04686
:103A3000000100D0800100D0044A1078431CDBB2A2
:103A4000172B00D9102313707047C0463C15002077
:103A500000B5054B83B00100009318221F230348D3
:103A6000FFF786FF03B000BDA4640410B802022073
:103A7000F8B5040006200D0001F074FA002845D0C6
:103A80002B4B2C49E3185A4253418022D2039446CF
:103A90005B421340284A63441360284A13601800AD
:103AA0008A689043FBD1224B8021E3185A4253414C
:103AB000234A5B0049000620995201F053FA29007D
:103AC000C00003F08DF8C30921D140270122260050
:103AD00080256262A36200232C36AD0135432B6042
:103AE000062001F03FFA3900800003F079F86023E6
:103AF000E26A53406E221A4080235B0133431A600E
:103B0000104B236310232B600D3BA364F8BD0E4ABA
:103B1000934203D900230D4F0D4AD8E77F2210406E
:103B2000013040089F011A003F180300CFE7C0464C
:103B30000080FCBF00C0004000E0004000F00040FA
:103B40002C09022001030000FEFF0000C0FF3F001F
:103B5000FFFF000083680B4810B58446614462444F
:103B6000090112019A18591854684B6801209C42A7
:103B700001D802D00020C0B210BD12680B689A4272
:103B8000F9D8F7E7FFFFFF0F0A4B1968EFF3108032
:103B900072B60A68002AFCD0BFF35F8F1B68BFF3C0
:103BA0005F8F00221A6080F3108840BF0020002140
:103BB0007047C046F0080220F8B557464E464546C5
:103BC000DE46E0B5434D81468A466A68EFF31088C9
:103BD00072B61368002BFCD0BFF35F8F2E68B47BE6
:103BE000002C3ED0670033683F19033FDA19537841
:103BF000B373002B00D1F3730023937053701370D1
:103C0000A968354A8C464946A218120162441160DF
:103C1000514651603149D36091603268D219937036
:103C200053701370737B9B46002B35D02200190014
:103C3000B068736898473268002820D05B465846C1
:103C40005B005B44D719033BB870D118D35C002BE1
:103C500000D07B705B460C7073735C451DD00026F2
:103C600026E06B68BFF35F8F1C6088F3108801202B
:103C700040423CBC90469946A246AB46F8BD5B46E6
:103C80005B005B44033BD3189C70D119D25D002AC2
:103C900000D05A705B460B7074734A465346287DB9
:103CA00000F078FC061EDAD02100286800F0EAFE59
:103CB000EB686A681B19013B1B78BFF35F8F00211B
:103CC000116088F310880020002ED2D11802204302
:103CD000CFE7C04640150020FFFFFF0F893B0010D3
:103CE000F8B5574645464E46DE46E0B599460CAB1C
:103CF00019780DAB1B78050090469A460768002995
:103D000012D1BE7B002E45D074003B68A419033C41
:103D10001B195A783100BA73002A00D1FA730022B5
:103D20009A705A701A7003E00E004C006418033C3D
:103D30002C4B00229C46AB6861449C4643460901DB
:103D400061440B604B464B600A9B8B600B9BCB60C6
:103D50003B681B199A705A701A707B7B9B46002B2C
:103D60002CD032005946B8687B6898473A680028DA
:103D700017D05B4658465B005B441419033BA070A8
:103D8000D118D35C002B00D063705B460E707B7340
:103D9000B34514D030003CBC90469946A246AB4691
:103DA000F8BD5B465B005B44033BD3189E70111962
:103DB000125D002A00D05A705B460B707E7342463B
:103DC0004B46287D00F0E6FB041E06D05346002B30
:103DD00003D13100286800F055FE0E9B002BD9D08E
:103DE0001C70D7E7FFFFFF0FF0B5DE464E46574683
:103DF00045460023E0B58DB00A936B4B8200D35843
:103E00000B90994600239B464B46079300F038FBE6
:103E1000079C06000F006268EFF3108572B6136806
:103E2000002BFCD022000794BFF35F8F2468637BD4
:103E30009946002B67D092685C4B90464B441B011F
:103E4000984443461A685B6810001900801BB9410A
:103E500000295FDD0B9800F09DFB002300269846AB
:103E600000279A46079C6368BFF35F8F5A461A6023
:103E700085F310885346002B08D10028C6D10DB019
:103E80003CBC90469946A246AB46F0BD0A9B4146D3
:103E900018024B461843D047089009916268EFF327
:103EA000108572B61368002BFCD00794BFF35F8FA8
:103EB0000899099A002A48DB114303D0079B1B6924
:103EC000002B5DD1079B1B68DA7B002A07D05100CD
:103ED0008A1819688C4649466244033A51704A462A
:103EE000DA734B46079A013BD168CA5C0132CA5467
:103EF0005B46079A13615368BFF35F8F5A461A6097
:103F000085F3108882E700230026984600279A460A
:103F10000020A7E7002901D100289BD10021200023
:103F200000F012FD43461E685F689B68079A9A4638
:103F30004346DB689846D3684B44013B1B780A93A1
:103F40001B020343136100208CE72369002BB9D0C7
:103F500033003C005B1A94411A002300A74219D891
:103F60009F421BD059460491012103914946029179
:103F700041460191514607980091FFF7B1FEB7E71E
:103F800000F07EFA089A099B06000F0092197B4107
:103F90009942E5D901225242D317E3E79642E1D98B
:103FA00001225242D317DDE7D8080220FFFFFF0F9E
:103FB00010B5124C6368002B04D00A21104800F0A1
:103FC0007BFB10BD23000F4A1021206800F0DAFBB4
:103FD000032000F049FA032000F04EFB03200A49B9
:103FE00000F092FAFFF728FD084B9C46032360443B
:103FF0002375074B80006060DC60DEE74015002021
:10400000F0080220553B0010E93D0010400000344C
:10401000D80802200048704740150020F0B55746E8
:104020004546DE464E46E0B585B0019310AB1B78A1
:1040300000270393002380469A46009243465A681D
:10404000EFF3108972B61368002BFCD0BFF35F8FBB
:1040500043461D68AC7B002C4FD066002B68361998
:10406000033E9B195A78AA73002A00D1EA7342468C
:104070009F705F701F709268524B94460099019A2E
:10408000E3181B01634419605A600E9A9A600F9AF4
:10409000DA602B689B199F705F701F706B7B9B466B
:1040A000002B46D022001900A8686B6898472A6840
:1040B000002831D05B4658465B005B449619033BB1
:1040C000B070D118D35C002B00D073705B460C70BD
:1040D0006B735C452ED04346DB681B19013B187897
:1040E00043465B68BFF35F8F1F6089F310885346B8
:1040F000002B2ED10002204307E05B68BFF35F8FE7
:104100001C6089F310880120404205B03CBC9046F9
:104110009946A246AB46F0BD5B465B005B44033B61
:10412000D3189C709119925D002A00D05A705B469A
:104130000B706C734346187D009A019B00F02AFABD
:1041400082460028C7D043462100186800F09AFC38
:10415000C1E7039B002B32D00E9B00200F9998479C
:10416000030004000D000B4329D000290DDA00984C
:10417000019902000B00121BAB41994215D81AD0CD
:1041800000920193039B9A4658E700F079F90200E8
:104190000B00A4185D412000290000900191AB4262
:1041A00003D8EFD100998A42ECD901235B42DC1796
:1041B00000930194E6E700999142E1D9F5E70020E8
:1041C000A3E7C046FFFFFF0FF0B504000D00062671
:1041D0007642F717C64636196F4100B58F4213D89D
:1041E00010D000F04DF932003B00121A8B41002B29
:1041F00014DC002B37D02900200000F075F904BC36
:104200009046F0BD8642ECD90026002700F038F930
:1042100032003B00121A8B41002BEADD30003900DE
:10422000FFF7CAFC0028E6DB00239846BC460F4A8D
:104230000F4F7B6A9C4504D8B96A8E42DBD99C45F6
:10424000D9D11168EFF3108072B60B68002BFCD047
:10425000BFF35F8F1368BFF35F8F4146196080F330
:10426000108820BFE5E7002AC5D0D7E7F008022074
:104270000040054070B504000D0000F001F9020097
:104280000B0020002900801859418B4205D802D02C
:10429000FFF79AFF70BD8242FAD901204042C11750
:1042A000F6E7C04670B5060000F0EAF8FA2204000E
:1042B0000D00002330000021920003F0CBFB001919
:1042C00069418D4205D802D0FFF77EFF70BD844260
:1042D000FAD901204042C117F6E7C046F8B5CE46EC
:1042E000474680B506000C00FFF766FC00280CDC92
:1042F0002D4B0020596A8C4203D89B6A0130B3428F
:1043000045D30CBC90469946F8BD20BF274D6A683E
:10431000EFF3108772B61368002BFCD0BFF35F8FEA
:104320002B68C1B29C465B7B8B4235D0FF23034098
:104330005A00914662461268994490464A46424461
:10434000033A9278002A1DD0EA68000A9046434456
:10435000013B1B78C0B2834221D06B68BFF35F8FF3
:1043600000221A6087F310880F4A0020536A9C428B
:10437000C7D8926A0130B242C3D2E41A601E8441A7
:10438000E0B2BEE72B699842E7D12A61E5E7641AFB
:10439000601E8441E0B2B4E7FF230340D4E76046E7
:1043A00000F070FBD9E7C0460040054040150020F2
:1043B000F0B5D6464F464646C0B5EFF305833F22DB
:1043C000134018001038EFF3108C72B6204D2A6895
:1043D000002AFCD0BFF35F8F0122110081401D4CE9
:1043E000884661631C4917000E788A463100C14037
:1043F0000F400A4215D019498200646A51588C4214
:1044000019D3174BD25843469E4353461E70BFF3F1
:104410005F8F00232B608CF31088002A06D0904712
:1044200004E0BFF35F8F2F608CF310881CBC9046B4
:104430009946A246F0BD0B4A9B00904643441A6839
:104440001A60BFF35F8F00232B608CF31088EDE7B9
:10445000280100D00040054029090220FC08022064
:10446000A43F0020D03F054010B50100024A034898
:10447000FFF75AFA10BDC046C8640410250902208F
:10448000034B596A0A00986A596A8A42FAD17047FE
:104490000040054070B504000D00124A536A19002F
:1044A000966A536A8B42FAD13000190024184D41A4
:1044B000AB4211D80ED02B000A494A6A9A42FCD36B
:1044C00007D1084A02E0516A994202D1916AA14299
:1044D000F9D370BDA642EED9012301246442E51749
:1044E0005B42E9E700400540064A536A9942FCD81E
:1044F00007D1044B02E05A6A914202D19A6A824281
:10450000F9D370470040054070B504000D00EFF38B
:10451000108672B61A4A1368002BFCD0BFF35F8F67
:10452000002D1BD0200000F03DFD164981420AD02D
:10453000200000F03FFD0121200000F019FD0123C3
:10454000A340114A1360114BA400E550BFF35F8FE5
:1045500000220B4B1A6086F3108870BD0B4BA20033
:10456000D5500122A2400A4920000B7893430B70DA
:10457000044900F049FD0021200000F0F9FCE5E7C6
:10458000280100D0B143001038600540A43F00204E
:1045900029090220F0B54F46D6464646C0B5070069
:1045A000304C616A0D00A66A616AA942FAD18B4259
:1045B00008D805D001201CBC90469946A246F0BD03
:1045C000B242F7D9EFF3108972B627480168002983
:1045D000FCD0BFF35F8F01252449BD408C4609788C
:1045E000204C0E002E438846F1B28A466146504662
:1045F0000870391D1E48890065630A51B9000B50C7
:10460000216A0020294219D0616A0800A66A616AFD
:104610008142FAD18B4219D801D1B24216D8C24593
:104620001DD0104B1F201D625D6301230740BB405E
:10463000104A1E381360634642461A70BFF35F8FFC
:104640000022094B1A6089F31088B4E70020BFF3F9
:104650005F8F0022044B1A6089F31088ABE70120BA
:10466000ECE7C04600400540280100D0290902209F
:10467000FC08022080E200E010B5EFF3108472B66F
:104680000A490B68002BFCD0BFF35F8F01238340E6
:10469000074A0848136202789A430270BFF35F8F9B
:1046A00000230B6084F3108810BDC046280100D0A1
:1046B0000040054029090220024B9C4661448900C4
:1046C000016070474000003410B50400FFF7B4F9F2
:1046D00001002000FFF7F0FFFF23A380BFF35F8FEF
:1046E00010BDC04610B50400FFF7A6F90100200078
:1046F000FFF7E2FF01235B42A380BFF35F8F10BD92
:1047000010B504000120FFF7A3F9034BC3189B0069
:104710002360BFF35F8F10BD4000003470B505000B
:104720000E001400002924D0002A24D080686B6871
:104730009847296800280ED063001B197200033BBC
:104740009219CB18033A9E7088188A5C002A14D1FB
:10475000047030000EE073009B196200033B1219D5
:10476000CB18033A9C7088188A5C002A00D05A70D3
:104770000670200070BD0800FCE75A70047030001D
:10478000F8E7C04630B583600023CCB243730133F1
:10479000047342608373C4730D000068012C06D952
:1047A000421C0133DBB2137003329C42F9D1FF216A
:1047B00029404B005918002340180338437030BD7E
:1047C000F8B5CE46474606000C0080B5002907D054
:1047D0004D0003686D18033D5A195778002F04D116
:1047E00020000CBC90469946F8BD7900C9190339E0
:1047F000884643445978894600215970517073683E
:104800003A002100806898473368002814D0424657
:104810009A18947059195B5D002B00D053700F707B
:10482000270049463000FFF7CBFF39000200300077
:10483000FFF774FF0400D3E7424641465D19AF70AD
:104840009A185B5C002B00D06B701470E9E7C046CF
:10485000F0B557464546DE464E46E0B50D006B00C6
:1048600001685B19DF1E0400C85D83B00192CA199C
:1048700000284CD043001B18033BCB185E78B4468D
:10488000002E16D1019E002E3ED0E67B002E04D0D5
:1048900073009B19CB18033B5D70E57300282FD183
:1048A0000023537003B03CBC90469946A246AB46E9
:1048B000F0BD72006244033A89184A78904600229B
:1048C0004A7091465A70010032002000FFF726FF1F
:1048D00043468246002B07D05B0021684344033BDC
:1048E000CB185A78002A16D1424651462000FFF7CD
:1048F00015FF2168019BCA19002BC6D10028CFD013
:1049000043001B18033BCB1800219970C8E7019B9B
:10491000002BBAD1C4E75000801803380918487832
:10492000834648464870587041462000FFF7F6FE1F
:10493000594680462000FFF743FF41460200200011
:10494000FFF7ECFE8046CFE7F0B54E464546DE4623
:104950005746E0B5467B040075000068AD19033D7D
:1049600083B00191415D421900294ED04B005B1884
:10497000033BC3185F78BC46002F18D1019D002D62
:1049800040D0E57B002D04D06B005B19C318033BBE
:104990005E70E673002931D10023300053706173DB
:1049A00003B03CBC90469946A246AB46F0BD7A00A7
:1049B0006244033A8018427893460022427091463E
:1049C0005A7020003A00FFF7A9FE5B468046002B94
:1049D00007D05B0021685B44033BCB185A78002A60
:1049E00017D15A4641462000FFF798FE019B01006F
:1049F00020684219002BC4D10029CDD04B005B1890
:104A0000033BC31800209870C6E7019B002BB8D168
:104A1000C2E7500080180338091848788246484693
:104A20004870587059462000FFF778FE5346834679
:104A3000002B07D05B0021685344033BCB185A7806
:104A4000002A06D1594652462000FFF767FE8346EA
:104A5000C7E7500080180338091848464F78487057
:104A6000587051462000FFF759FE3900814620005A
:104A7000FFF7A6FE494602002000FFF74FFE8246E0
:104A8000E0E7C04670B5040000292CD0437B8B4280
:104A90002ED0056848004018033828188278002A6C
:104AA00021D053009B18033BEA5CEE188A4202D1E6
:104AB0001BE0002A08D053009B18033BEB185A78E0
:104AC0008A42F6D142785A700023012283704370E3
:104AD0002000FFF7BDFE617B02002000FFF71EFEF5
:104AE0006073012000E0002070BD43783370EBE775
:104AF00001221900FFF7ACFE60730120F4E7C04605
:104B00002F4B304A70B51A602F4A304B30491A602B
:104B100010008B689843FBD12E4C2F4B9C4209D23E
:104B2000013B1D1BAD080135AD002D1908CC984780
:104B3000AC42FBD100F0B8F8284A244B1A60244A52
:104B40009368DB018033FBD14022254B254C9A67CB
:104B50005A671A67DA66244B9C4214D2013B1D1B2C
:104B6000ED080135ED002D1904E00834FFF7BAFD1A
:104B7000AC4208D063792000002BF6D10834FFF74F
:104B8000A3FDAC42F6D1194C194DA168C0222800F2
:104B900003F0B4F8A560FEF741FF00F06DFBFFF7EE
:104BA00007FA144C144B9C4209D2013B1D1BAD0863
:104BB0000135AD002D1908CC9847A542FBD170BD39
:104BC00000E00040BFCDFBFEFE7F3C0000F0004057
:104BD00000C00040E8200020F8200020FFFFFF0177
:104BE00000F00140E0200020E820002000ED00E07F
:104BF00000000020F82000201C21002000BEFDE75E
:104C0000094A03001068002805D00849C3188B42E0
:104C100007D81360704706480449C31810608B42D8
:104C2000F7D901204042F5E74C040220000004209F
:104C3000F80B022000BEFDE710B50C0082B0190091
:104C4000002A09D0064B0192009302002300054878
:104C500001F030FF00BEFDE7034B1A00F3E7C0464A
:104C6000EC640410FC6404105C6404100FB400B520
:104C7000084883B003F068F9049B002B07D005A90E
:104C80001800019101F036FF034803F05DF900BE02
:104C9000FDE7C0462C6504108061041010B5014882
:104CA000FFF7E4FF3C65041030B50C2083B000F042
:104CB00051FBFEF7ABFE00280ED0944B944A1A60CD
:104CC0005A609A60DA601A615A619A61DA611A620E
:104CD000904A5A6203B030BD8F4CA06700F08EFB43
:104CE00001228E4B1A60636C012BFCD103228C4B8A
:104CF0001A60894A936B012BFCD102240121894A55
:104D000089480533009400F0D3FA0523874A01212E
:104D10008748009400F0CCFA864B5A68FF2A02D8E4
:104D2000802252005A608022784C7D4B216912010A
:104D3000804D1A60002905D0606901F051FF0130F3
:104D40000138FDD1E0217B4B02201A6811408022FE
:104D500052012A4311601968484003210140116043
:104D600004219A681142FCD08022802192012A43BA
:104D700009011160802252005A606F4B23616F4B12
:104D80005968FF2900D85A6003226C48634B0121FF
:104D90001A60020093681942FCD0E02513681D4098
:104DA00080235B0103431D6012684A4003211140C8
:104DB00019600221614A93681942FCD08023802146
:104DC0009B0103430901196080215D4B490051603B
:104DD00063615C4B5A68FF2A00D8596080225A4BA5
:104DE000E1691201574D1A60002905D0606901F090
:104DF000F7FE01300138FDD1E02252490B681A401C
:104E000080235B012B431A60802380229B012B436C
:104E100012011A6080223E4B52004A60E3614B4B04
:104E20005968FF2900D85A608022494B216A120133
:104E3000464D1A60002905D0606901F0D1FE0130AD
:104E40000138FDD1E02241490B681A4080235B0103
:104E50002B431A60802380229B012B4312011A608E
:104E6000802380225B004B60294BD2022362394BA6
:104E70005968914200D25A608022374B616A120110
:104E8000344D1A60002905D0606901F0A9FE013097
:104E90000138FDD1E0222F490B681A4080235B01C5
:104EA0002B431A60802380229B012B4312011A603E
:104EB0008023DB024B60174B6362284B5A68FF2A42
:104EC00002D8802252005A608022254BA16912012B
:104ED000224D1A60002905D0606901F081FE013081
:104EE0000138FDD1E0221D490B681A4080235B0187
:104EF0002B431A60802380229B012B4312011A60EE
:104F000080235B004B600E4BA361E3E6BC020220F2
:104F1000006CDC021BB70000008000403CB0004089
:104F200030B00040002F68590080024000389C1CBF
:104F300000C0024030800040001BB7003C800040B1
:104F4000405973075480004054B0004060800040D6
:104F500060B000406C8000406CB000404880004071
:104F600048B00040014B8000C0587047BC0202208E
:104F700001238340002904D0034A1360034A1360CD
:104F80007047034A1360FBE780E200E000E100E0C5
:104F900080E100E001238340014A13607047C0466E
:104FA00000E200E0024B10309B688000C058704760
:104FB00000ED00E070B50D00EFF3108672B60F4AF9
:104FC0001368002BFCD0BFF35F8F0D4B10309B6834
:104FD00084001B590B4A934203D09D4201D0FFF736
:104FE0005DFE074B9B681D51BFF35F8FBFF35F8F63
:104FF0000022024B1A6086F3108870BD240100D095
:1050000000ED00E0CD010010F0B5DE4657464E46FB
:105010004546E0B50C0083B0EFF3108A72B65B4AE8
:105020001368002BFCD0BFF35F8F102291468144A0
:105030004A46574B96009B689D59564B98469D4251
:1050400005D0A54216D0544FEB1B2F2B14D9504B33
:105050009B689D51BFF35F8FBFF35F8F00224B4B67
:105060001A608AF3108803B03CBC90469946A24669
:10507000AB46F0BD1D00EAE7012383409B465A463C
:10508000464B1B681A4000925A46454B1A60BFF3C4
:105090005F8FFBF7E8F80190002803D0814501D02D
:1050A000FFF7FCFD01232A009A431300DB1B5B4141
:1050B00042495943090D93689C4208D15BE0430083
:1050C0001B189B00FB189868A04211D01A000620FC
:1050D00010560028F3DA009B002B05D05A46314BBE
:1050E0001A602E4B1A60B2E75A462D4B1A60AEE793
:1050F00006201856002822DB4200111889007C186F
:105100008846A1689960E179D97106216156997143
:10511000A1797F291FD8A488F91A6405241544446D
:105120000919E0240905490D240221439980121828
:105130001D4B9200BF181A781870BA71CBE701980E
:1051400000280BD1FF30907118489080164A1078D3
:1051500011709871BFE7BD210902E7E7144A1549AC
:10516000D21A083A5002400D014399801249520860
:105170000A43DA80AFE70620105613000028BBDA96
:10518000019A002AEAD14546E0E7C046240100D052
:1051900000ED00E0CD0100106815002000E100E006
:1051A00080E100E080E200E02609022000BDFFFF70
:1051B000A215002000F0FFFF00F8FFFFAAAA0000E0
:1051C000F8B5012504000543FBF74DF80200EFF3A5
:1051D000108672B621490B68002BFCD0BFF35F8F9D
:1051E0001F492000401A4041224B43431B0D1D48DC
:1051F000920087685BB2BF58AF421CD006228A5625
:105200009A421CD012228A569A4222D01E228A56D4
:105210009A4220D02A228A5603209A4210D0124A5B
:1052200011781370A171BFF35F8F00220B4B1A60CE
:1052300086F31088F8BD81680C488850EFE700209D
:105240004200121892008918FF228A71084A8A8047
:10525000E5E70120F4E70220F2E7C046240100D090
:105260006815002000ED00E026090220CD010010A5
:1052700000BDFFFFAAAA0000F0B500220324FF270B
:10528000802620003D00094B11009C461040C000C4
:105290008540A14361440B680132AB433500854032
:1052A0002B430B60202AECD1F0BDC04600E400E0A7
:1052B000F8B504000C2017001D000E0001F090FC52
:1052C0004101091A8B01591AC900091889013800CE
:1052D00001F086FC069A2B04120313432268002A6D
:1052E00021DB184AA21851424A41802149018C46CB
:1052F00052420A40144962440A6014490A6014493F
:1053000017008D68AF43FBD1C021221D89011143D5
:1053100021222660A0600A602268002AFCDAE3608D
:1053200008230B60F8BD3F2221680A40B242D8D161
:10533000A2681205120D8242D3D1E268002BD0D1AF
:10534000F0E7C0460040FDBF00E0004000F0004034
:1053500000C000408023024A9B000343D362704791
:105360000080054010B5140080221A4BD2051A6047
:1053700000282CD00123184A1843184BDA61184A28
:1053800042401A62596298628022124BD2051A601A
:105390001449154A1160E022D2041A60002C12D080
:1053A00080236201121B9200121912015B049A42BF
:1053B00000D30E4A0E4B1A60084B5A6080220D4BE8
:1053C000D2051A6010BD0C4A094B1A60F4E7034B72
:1053D000D861D9E700B00540D3C007B000800540D0
:1053E0002D3FF84FFCFF010008200140FFFFFF00A8
:1053F0006808022000A00540A0860100AA23064AF2
:105400001B0113602F230549D360054B19605368B6
:10541000002BFCDA7047C0460040024000B0FA00A2
:10542000006002409A4200D2885470477047C046DC
:10543000F8B557464E46DE464546E0B51F000A9B86
:1054400005009B460D9B0E00914692469B0718D186
:105450000B9B0C9A934214D213000B9AB8469B1ADA
:105460004B444C460F0006001D0022004346013409
:1054700039002020B047AC42F7D1AA4635003E00A3
:1054800047460B9B002B38D09A441C00D04653460D
:105490001A1B5B46013C185D31003B00A847002CFD
:1054A000F5D10D9B9B0721D543464A469C1A0C9B80
:1054B000A3421BD93A009A464F469146E2194B4601
:1054C000310020200134A8475445F7D343460C99B6
:1054D000DB1B0133B9460022994203D343464A1EDF
:1054E0004A44D21A434690460133984440463CBC55
:1054F00090469946A246AB46F8BDD046D1E7C04695
:10550000F0B54F464646D646C0B584B098460EAB79
:105510001B78129F994694460D9C109B119EBA07CA
:1055200025D4002E69D19C4200D3C2E001223A402A
:1055300092461F2C00D9BBE00C9A551E302201E088
:10554000202C03D001342A55A342F9D85246002A10
:105550000DD0B4420BD21F2C62D80C9A551E3022AB
:1055600001E0202C5CD001342A55B442F9D1FA066E
:1055700035D57A055DD4002C57D10F9B102B00D167
:105580007CE00F9B022B00D18DE030230C9A01248C
:1055900013704B46002B27D02D230C9A1355013442
:1055A0000C9B624600930397434602960194FFF7D3
:1055B0003FFF04B01CBC90469946A246F0BDBB0616
:1055C00063D4202CECD00C9B1A190134782313706F
:1055D000202CE5D030220C9B1B191A700134202C92
:1055E000DED04B46002BD7D17B0735D43B07D7D530
:1055F00020230C9A13550134D2E7012215003D40B7
:10560000AA463A4220D04A46002A2AD10C323A42CF
:1056100027D19C429DD21F2C00D88DE7202E19D96E
:105620002024FA06BCD57A0503D4A3421BD0A64297
:1056300019D00F9B102BC2D0022BC9D1202CAFD078
:105640000C9B1B19013440E09C4200D38FE71F2CB8
:1056500000D871E720248AE72B230C9A13550134D4
:105660009EE7013ED5E7631E012C00D185E70F9A26
:10567000102A20D0022A25D01C00ABE7BB060DD48F
:1056800078230C9A01241370A4E7202C00D187E71B
:1056900058220C9B1B191A70013499E758230C9A55
:1056A0000124137096E70C9A60330124137091E77C
:1056B000202400265BE7023CBA06E9D40C9A1219B2
:1056C0001C0083E70C9A9246534462221A707FE7CB
:1056D00010B5002800D110BD02F028FCFBE7C04641
:1056E0000B0010B5002802D049681B68984710BD10
:1056F000F0B5DE46574645464E46E0B59BB09B4664
:10570000249B0A909846259B0B910C92404642465A
:1057100019009A4601F03BFD002800D0E8E0012284
:10572000404651467F4B524201F02CFD002800D0EC
:10573000DEE00122404651467B4B524201F00CFD17
:10574000002800D0D4E0002200234046514601F05A
:1057500003FD002800D0CAE15346C14609938023C7
:10576000289ADB001A400E92289A1A4201D1062389
:1057700026934C46099B234300D0D9E0289B002662
:1057800000271B0500D4AEE100230D93269B1900D2
:105790000D9B994200DCB0E1C81A431E269380237A
:1057A000289ADB001A430023002528920D93279B9B
:1057B0000024AB4200D95C1B0223289A1A400E92A7
:1057C000289A134203D06B426B415B421C400D9BF5
:1057D000002B07D04846099932003B0001F053FCEA
:1057E00081460991002200234046514601F0B4FC55
:1057F000002805D08020000684460999614409915B
:10580000289A4A4B0A9E13404A460493269B0B99BA
:105810000293099B03940092019330005B460C9A1B
:10582000884600F0A1F90400002D72D0289B2200C8
:1058300098061F23C017984341465B466530B04722
:105840000D9B671CDA179C18DB0F98466B1E994658
:105850000025544001E0202D13D00AAA94461F23AE
:10586000200063440A2101355E1901F0B9F9303195
:10587000317020000A2101F0B3F926000400092E3E
:10588000E9D8052306934B460593002304930A3376
:10589000039343463A000A9E0B9F029312AB009378
:1058A00039005B4630000195FFF72AFE0E9B04008D
:1058B000002B2ED00C9B279AC51AAA4229D93C004E
:1058C000814698461700434621005A1920205B461E
:1058D0000135B047AF42F6D84C460C992798631A69
:1058E00001330022984200D30AE10134141910E078
:1058F000289B42460493279B0B990393269B0A9867
:1059000002935346009201935B460C9A00F02CF9E7
:10591000040020001BB03CBC90469946A246AB4612
:10592000F0BDC046FFFFEF7FFFFFEFFFFFF7FFFF78
:10593000764B099D9C466800400D604401F03AFC9E
:10594000734A744B01F0BDFB734A744B01F092FB38
:105950002B03734A1B0B1A4306000F00714B1100F7
:1059600048460022099501F07CFB6F4A6F4B01F01D
:10597000A8FB02000B003000390001F07BFB01F0B6
:1059800031FC0D9001F016FC694A6A4B04000D00D1
:1059900001F097FB0022684B01F06CFB01F022FC48
:1059A000664A0600664B2000290001F08AFB0400CD
:1059B00030000D000F9601F0FDFB624A624B01F0D2
:1059C00080FB02000B002000290001F04AFB0200CE
:1059D0000B0006000F0001F074FB320004000D0004
:1059E0003B003000390001F045FB0022109011917E
:1059F000564B2000290001F046FB0022544B01F0D9
:105A000039FB02000B002000290001F03CFB0022C2
:105A1000504B01F02FFB02000B002000290001F089
:105A200032FB0D00802132003B000400C90500203C
:105A300001F017FB02000B002000290001F01AFB07
:105A400002000B001098119901F01DFB0022344B4D
:105A500001F010FB404A0F9B9446634400221B0553
:105A600001F02FFB06000F0002000B0048460999C9
:105A700001F072FB00280AD00D9B3000013B390079
:105A80000D930022324B01F0FEFA06000F00C625EE
:105A90000D99330063318D42AD4128996D42043533
:105AA000090500D483E63B4300D16FE6099C4846D4
:105AB00021002A4A2A4B01F05DFB002808D0002271
:105AC00048462100274B01F047FB002800D05DE647
:105AD000269B002B00D16AE60E9B5A1E9341269A04
